{
  "_format": "hh-sol-artifact-1",
  "contractName": "SubscriptionSolver",
  "sourceName": "contracts/SubscriptionSolver.sol",
  "abi": [
    {
      "inputs": [
        {
          "internalType": "address",
          "name": "_subscriptionManager",
          "type": "address"
        },
        {
          "internalType": "address",
          "name": "_gasOptimizer",
          "type": "address"
        }
      ],
      "stateMutability": "nonpayable",
      "type": "constructor"
    },
    {
      "inputs": [
        {
          "internalType": "address",
          "name": "owner",
          "type": "address"
        }
      ],
      "name": "OwnableInvalidOwner",
      "type": "error"
    },
    {
      "inputs": [
        {
          "internalType": "address",
          "name": "account",
          "type": "address"
        }
      ],
      "name": "OwnableUnauthorizedAccount",
      "type": "error"
    },
    {
      "inputs": [],
      "name": "ReentrancyGuardReentrantCall",
      "type": "error"
    },
    {
      "anonymous": false,
      "inputs": [
        {
          "components": [
            {
              "internalType": "uint256",
              "name": "maxGasPrice",
              "type": "uint256"
            },
            {
              "internalType": "uint256",
              "name": "optimalGasPrice",
              "type": "uint256"
            },
            {
              "internalType": "uint256",
              "name": "executionBuffer",
              "type": "uint256"
            },
            {
              "internalType": "bool",
              "name": "autoExecution",
              "type": "bool"
            },
            {
              "internalType": "uint256",
              "name": "maxExecutionDelay",
              "type": "uint256"
            }
          ],
          "indexed": false,
          "internalType": "struct SubscriptionSolver.SolverConfig",
          "name": "newConfig",
          "type": "tuple"
        }
      ],
      "name": "ConfigUpdated",
      "type": "event"
    },
    {
      "anonymous": false,
      "inputs": [
        {
          "indexed": true,
          "internalType": "address",
          "name": "previousOwner",
          "type": "address"
        },
        {
          "indexed": true,
          "internalType": "address",
          "name": "newOwner",
          "type": "address"
        }
      ],
      "name": "OwnershipTransferred",
      "type": "event"
    },
    {
      "anonymous": false,
      "inputs": [
        {
          "indexed": true,
          "internalType": "address",
          "name": "user",
          "type": "address"
        },
        {
          "indexed": false,
          "internalType": "uint256",
          "name": "gasPrice",
          "type": "uint256"
        },
        {
          "indexed": false,
          "internalType": "uint256",
          "name": "gasSaved",
          "type": "uint256"
        },
        {
          "indexed": false,
          "internalType": "uint256",
          "name": "executionTime",
          "type": "uint256"
        }
      ],
      "name": "TransactionExecuted",
      "type": "event"
    },
    {
      "anonymous": false,
      "inputs": [
        {
          "indexed": true,
          "internalType": "address",
          "name": "user",
          "type": "address"
        },
        {
          "indexed": false,
          "internalType": "string",
          "name": "reason",
          "type": "string"
        },
        {
          "indexed": false,
          "internalType": "uint256",
          "name": "gasPrice",
          "type": "uint256"
        }
      ],
      "name": "TransactionFailed",
      "type": "event"
    },
    {
      "anonymous": false,
      "inputs": [
        {
          "indexed": true,
          "internalType": "address",
          "name": "user",
          "type": "address"
        },
        {
          "indexed": true,
          "internalType": "address",
          "name": "wallet",
          "type": "address"
        },
        {
          "indexed": true,
          "internalType": "uint256",
          "name": "planId",
          "type": "uint256"
        },
        {
          "indexed": false,
          "internalType": "uint256",
          "name": "targetExecutionTime",
          "type": "uint256"
        }
      ],
      "name": "TransactionQueued",
      "type": "event"
    },
    {
      "inputs": [],
      "name": "calculateAverageGasPrice",
      "outputs": [
        {
          "internalType": "uint256",
          "name": "",
          "type": "uint256"
        }
      ],
      "stateMutability": "view",
      "type": "function"
    },
    {
      "inputs": [],
      "name": "cancelAllPendingTransactions",
      "outputs": [],
      "stateMutability": "nonpayable",
      "type": "function"
    },
    {
      "inputs": [],
      "name": "config",
      "outputs": [
        {
          "internalType": "uint256",
          "name": "maxGasPrice",
          "type": "uint256"
        },
        {
          "internalType": "uint256",
          "name": "optimalGasPrice",
          "type": "uint256"
        },
        {
          "internalType": "uint256",
          "name": "executionBuffer",
          "type": "uint256"
        },
        {
          "internalType": "bool",
          "name": "autoExecution",
          "type": "bool"
        },
        {
          "internalType": "uint256",
          "name": "maxExecutionDelay",
          "type": "uint256"
        }
      ],
      "stateMutability": "view",
      "type": "function"
    },
    {
      "inputs": [],
      "name": "executePendingTransactions",
      "outputs": [],
      "stateMutability": "nonpayable",
      "type": "function"
    },
    {
      "inputs": [
        {
          "internalType": "uint256",
          "name": "index",
          "type": "uint256"
        }
      ],
      "name": "forceExecuteTransaction",
      "outputs": [],
      "stateMutability": "nonpayable",
      "type": "function"
    },
    {
      "inputs": [],
      "name": "gasOptimizer",
      "outputs": [
        {
          "internalType": "contract GasOptimizer",
          "name": "",
          "type": "address"
        }
      ],
      "stateMutability": "view",
      "type": "function"
    },
    {
      "inputs": [],
      "name": "getCurrentGasPrice",
      "outputs": [
        {
          "internalType": "uint256",
          "name": "",
          "type": "uint256"
        }
      ],
      "stateMutability": "view",
      "type": "function"
    },
    {
      "inputs": [
        {
          "internalType": "address",
          "name": "user",
          "type": "address"
        }
      ],
      "name": "getNextExecutionTime",
      "outputs": [
        {
          "internalType": "uint256",
          "name": "",
          "type": "uint256"
        }
      ],
      "stateMutability": "view",
      "type": "function"
    },
    {
      "inputs": [
        {
          "internalType": "uint256",
          "name": "index",
          "type": "uint256"
        }
      ],
      "name": "getPendingTransaction",
      "outputs": [
        {
          "components": [
            {
              "internalType": "address",
              "name": "user",
              "type": "address"
            },
            {
              "internalType": "address",
              "name": "wallet",
              "type": "address"
            },
            {
              "internalType": "uint256",
              "name": "planId",
              "type": "uint256"
            },
            {
              "internalType": "uint256",
              "name": "targetExecutionTime",
              "type": "uint256"
            },
            {
              "internalType": "uint256",
              "name": "maxGasPrice",
              "type": "uint256"
            },
            {
              "internalType": "bool",
              "name": "executed",
              "type": "bool"
            },
            {
              "internalType": "uint256",
              "name": "executionTime",
              "type": "uint256"
            },
            {
              "internalType": "uint256",
              "name": "actualGasPrice",
              "type": "uint256"
            }
          ],
          "internalType": "struct SubscriptionSolver.PendingTransaction",
          "name": "",
          "type": "tuple"
        }
      ],
      "stateMutability": "view",
      "type": "function"
    },
    {
      "inputs": [],
      "name": "getPendingTransactionsCount",
      "outputs": [
        {
          "internalType": "uint256",
          "name": "",
          "type": "uint256"
        }
      ],
      "stateMutability": "view",
      "type": "function"
    },
    {
      "inputs": [],
      "name": "getSolverStats",
      "outputs": [
        {
          "components": [
            {
              "internalType": "uint256",
              "name": "totalExecutions",
              "type": "uint256"
            },
            {
              "internalType": "uint256",
              "name": "totalGasSaved",
              "type": "uint256"
            },
            {
              "internalType": "uint256",
              "name": "averageGasPrice",
              "type": "uint256"
            },
            {
              "internalType": "uint256",
              "name": "successRate",
              "type": "uint256"
            },
            {
              "internalType": "uint256",
              "name": "lastExecutionTime",
              "type": "uint256"
            }
          ],
          "internalType": "struct SubscriptionSolver.SolverStats",
          "name": "",
          "type": "tuple"
        }
      ],
      "stateMutability": "view",
      "type": "function"
    },
    {
      "inputs": [
        {
          "internalType": "address",
          "name": "user",
          "type": "address"
        }
      ],
      "name": "getUserExecutionHistory",
      "outputs": [
        {
          "internalType": "uint256[]",
          "name": "",
          "type": "uint256[]"
        }
      ],
      "stateMutability": "view",
      "type": "function"
    },
    {
      "inputs": [
        {
          "internalType": "address",
          "name": "user",
          "type": "address"
        }
      ],
      "name": "getUserPendingTransactions",
      "outputs": [
        {
          "internalType": "uint256[]",
          "name": "",
          "type": "uint256[]"
        }
      ],
      "stateMutability": "view",
      "type": "function"
    },
    {
      "inputs": [],
      "name": "isOptimalGasConditions",
      "outputs": [
        {
          "internalType": "bool",
          "name": "",
          "type": "bool"
        }
      ],
      "stateMutability": "view",
      "type": "function"
    },
    {
      "inputs": [],
      "name": "owner",
      "outputs": [
        {
          "internalType": "address",
          "name": "",
          "type": "address"
        }
      ],
      "stateMutability": "view",
      "type": "function"
    },
    {
      "inputs": [
        {
          "internalType": "uint256",
          "name": "",
          "type": "uint256"
        }
      ],
      "name": "pendingTransactions",
      "outputs": [
        {
          "internalType": "address",
          "name": "user",
          "type": "address"
        },
        {
          "internalType": "address",
          "name": "wallet",
          "type": "address"
        },
        {
          "internalType": "uint256",
          "name": "planId",
          "type": "uint256"
        },
        {
          "internalType": "uint256",
          "name": "targetExecutionTime",
          "type": "uint256"
        },
        {
          "internalType": "uint256",
          "name": "maxGasPrice",
          "type": "uint256"
        },
        {
          "internalType": "bool",
          "name": "executed",
          "type": "bool"
        },
        {
          "internalType": "uint256",
          "name": "executionTime",
          "type": "uint256"
        },
        {
          "internalType": "uint256",
          "name": "actualGasPrice",
          "type": "uint256"
        }
      ],
      "stateMutability": "view",
      "type": "function"
    },
    {
      "inputs": [
        {
          "internalType": "address",
          "name": "user",
          "type": "address"
        },
        {
          "internalType": "address",
          "name": "wallet",
          "type": "address"
        },
        {
          "internalType": "uint256",
          "name": "planId",
          "type": "uint256"
        }
      ],
      "name": "queueTransaction",
      "outputs": [],
      "stateMutability": "nonpayable",
      "type": "function"
    },
    {
      "inputs": [],
      "name": "renounceOwnership",
      "outputs": [],
      "stateMutability": "nonpayable",
      "type": "function"
    },
    {
      "inputs": [],
      "name": "stats",
      "outputs": [
        {
          "internalType": "uint256",
          "name": "totalExecutions",
          "type": "uint256"
        },
        {
          "internalType": "uint256",
          "name": "totalGasSaved",
          "type": "uint256"
        },
        {
          "internalType": "uint256",
          "name": "averageGasPrice",
          "type": "uint256"
        },
        {
          "internalType": "uint256",
          "name": "successRate",
          "type": "uint256"
        },
        {
          "internalType": "uint256",
          "name": "lastExecutionTime",
          "type": "uint256"
        }
      ],
      "stateMutability": "view",
      "type": "function"
    },
    {
      "inputs": [],
      "name": "subscriptionManager",
      "outputs": [
        {
          "internalType": "contract SubscriptionManager",
          "name": "",
          "type": "address"
        }
      ],
      "stateMutability": "view",
      "type": "function"
    },
    {
      "inputs": [
        {
          "internalType": "address",
          "name": "newOwner",
          "type": "address"
        }
      ],
      "name": "transferOwnership",
      "outputs": [],
      "stateMutability": "nonpayable",
      "type": "function"
    },
    {
      "inputs": [
        {
          "components": [
            {
              "internalType": "uint256",
              "name": "maxGasPrice",
              "type": "uint256"
            },
            {
              "internalType": "uint256",
              "name": "optimalGasPrice",
              "type": "uint256"
            },
            {
              "internalType": "uint256",
              "name": "executionBuffer",
              "type": "uint256"
            },
            {
              "internalType": "bool",
              "name": "autoExecution",
              "type": "bool"
            },
            {
              "internalType": "uint256",
              "name": "maxExecutionDelay",
              "type": "uint256"
            }
          ],
          "internalType": "struct SubscriptionSolver.SolverConfig",
          "name": "newConfig",
          "type": "tuple"
        }
      ],
      "name": "updateConfig",
      "outputs": [],
      "stateMutability": "nonpayable",
      "type": "function"
    },
    {
      "inputs": [
        {
          "internalType": "address",
          "name": "",
          "type": "address"
        },
        {
          "internalType": "uint256",
          "name": "",
          "type": "uint256"
        }
      ],
      "name": "userExecutionHistory",
      "outputs": [
        {
          "internalType": "uint256",
          "name": "",
          "type": "uint256"
        }
      ],
      "stateMutability": "view",
      "type": "function"
    }
  ],
  "bytecode": "0x60806040523480156200001157600080fd5b5060405162001e6f38038062001e6f83398101604081905262000034916200016a565b33806200005b57604051631e4fbdf760e01b81526000600482015260240160405180910390fd5b6200006681620000fd565b506001808055600280546001600160a01b039485166001600160a01b03199182161790915560038054939094169216919091179091556040805160a081018252640ba43b74008082526404a817c80060208301819052610e1093830184905260608301859052611c2060809093018390526004919091556005556006919091556007805460ff1916909217909155600855620001a2565b600080546001600160a01b038381166001600160a01b0319831681178455604051919092169283917f8be0079c531659141344cd1fd0a4f28419497f9722a3daafe3b4186f6b6457e09190a35050565b80516001600160a01b03811681146200016557600080fd5b919050565b600080604083850312156200017e57600080fd5b62000189836200014d565b915062000199602084016200014d565b90509250929050565b611cbd80620001b26000396000f3fe608060405234801561001057600080fd5b506004361061014d5760003560e01c80638da5cb5b116100c3578063cae5b99c1161007c578063cae5b99c146103bc578063cb996aa0146103c4578063d390ed13146103cc578063d80528ae146103df578063e3fb635414610421578063f2fde38b1461043457600080fd5b80638da5cb5b146102f45780638f419c7f146103195780639e83e3061461032c578063b2f10e5b1461034c578063bf158fd21461035f578063c1f46a511461037257600080fd5b806332ff97241161011557806332ff97241461021c578063399e73471461022f57806350e2f0ce1461023757806363a8374d1461024a578063715018a6146102a557806379502c55146102ad57600080fd5b806311af65641461015257806315442602146101675780631cd4556d1461017d57806323fbae41146101905780632b05092a14610212575b600080fd5b3a5b6040519081526020015b60405180910390f35b6005543a1115604051901515815260200161015e565b61015461018b3660046118c3565b610447565b6101a361019e3660046118e5565b61050d565b60405161015e919060006101008201905060018060a01b038084511683528060208501511660208401525060408301516040830152606083015160608301526080830151608083015260a0830151151560a083015260c083015160c083015260e083015160e083015292915050565b61021a610643565b005b61021a61022a3660046118e5565b6106d3565b610154610965565b6101546102453660046118fe565b610a29565b61025d6102583660046118e5565b610a5a565b604080516001600160a01b03998a1681529890971660208901529587019490945260608601929092526080850152151560a084015260c083015260e08201526101000161015e565b61021a610ac1565b6004546005546006546007546008546102ca9493929160ff169085565b6040805195865260208601949094529284019190915215156060830152608082015260a00161015e565b6000546001600160a01b03165b6040516001600160a01b03909116815260200161015e565b61021a610327366004611928565b610ad5565b61033f61033a3660046118c3565b610e71565b60405161015e9190611964565b61033f61035a3660046118c3565b61101f565b600254610301906001600160a01b031681565b61037a61108b565b60405161015e9190600060a082019050825182526020830151602083015260408301516040830152606083015160608301526080830151608083015292915050565b61021a6110f2565b600954610154565b61021a6103da366004611a07565b6111a0565b600a54600b54600c54600d54600e546103f9949392919085565b604080519586526020860194909452928401919091526060830152608082015260a00161015e565b600354610301906001600160a01b031681565b61021a6104423660046118c3565b611326565b6000805b60095481101561050457826001600160a01b03166009828154811061047257610472611a8d565b60009182526020909120600890910201546001600160a01b03161480156104c05750600981815481106104a7576104a7611a8d565b600091825260209091206005600890920201015460ff16155b156104f257600981815481106104d8576104d8611a8d565b906000526020600020906008020160030154915050919050565b806104fc81611ab9565b91505061044b565b50600092915050565b61056960405180610100016040528060006001600160a01b0316815260200160006001600160a01b0316815260200160008152602001600081526020016000815260200160001515815260200160008152602001600081525090565b60095482106105af5760405162461bcd60e51b815260206004820152600d60248201526c092dcecc2d8d2c840d2dcc8caf609b1b60448201526064015b60405180910390fd5b600982815481106105c2576105c2611a8d565b60009182526020918290206040805161010081018252600890930290910180546001600160a01b039081168452600182015416938301939093526002830154908201526003820154606082015260048201546080820152600582015460ff16151560a0820152600682015460c082015260079091015460e082015292915050565b61064b611361565b60005b6009548110156106d0576009818154811061066b5761066b611a8d565b600091825260209091206005600890920201015460ff166106be5760016009828154811061069b5761069b611a8d565b60009182526020909120600890910201600501805460ff19169115159190911790555b806106c881611ab9565b91505061064e565b50565b6106db611361565b600954811061072c5760405162461bcd60e51b815260206004820152601960248201527f496e76616c6964207472616e73616374696f6e20696e6465780000000000000060448201526064016105a6565b6009818154811061073f5761073f611a8d565b600091825260209091206005600890920201015460ff16156107a35760405162461bcd60e51b815260206004820152601c60248201527f5472616e73616374696f6e20616c72656164792065786563757465640000000060448201526064016105a6565b6000600982815481106107b8576107b8611a8d565b60009182526020822060016008909202019081015460408051636e30798160e01b815290519294506001600160a01b0390911692636e3079819260048084019382900301818387803b15801561080d57600080fd5b505af192505050801561081e575060015b6108e05761082a611ad2565b806308c379a003610884575061083e611aee565b806108495750610886565b81546040516001600160a01b0390911690600080516020611c68833981519152906108779084903a90611b78565b60405180910390a2505050565b505b805460408051818152600d918101919091526c2ab735b737bbb71032b93937b960991b60608201523a60208201526001600160a01b0390911690600080516020611c68833981519152906080015b60405180910390a25050565b60058101805460ff191660011790554260068201553a6007820155600a805490600061090b83611ab9565b909155505042600e8190558154604080513a815260006020820152908101929092526001600160a01b0316907f6acec333edae4a7c9107a70f4abfe190f35b90fe9d875f6e5373471171956ba3906060016108d4565b5050565b600a5460009081036109775750600090565b60008060005b600954811015610a08576009818154811061099a5761099a611a8d565b600091825260209091206005600890920201015460ff16156109f657600981815481106109c9576109c9611a8d565b906000526020600020906008020160070154836109e69190611bcd565b9250816109f281611ab9565b9250505b80610a0081611ab9565b91505061097d565b5060008111610a18576000610a22565b610a228183611be6565b9250505090565b600f6020528160005260406000208181548110610a4557600080fd5b90600052602060002001600091509150505481565b60098181548110610a6a57600080fd5b6000918252602090912060089091020180546001820154600283015460038401546004850154600586015460068701546007909701546001600160a01b039687169850959094169592949193909260ff9091169188565b610ac9611361565b610ad3600061138e565b565b610add611361565b816001600160a01b038116610b2d5760405162461bcd60e51b8152602060048201526016602482015275496e76616c69642077616c6c6574206164647265737360501b60448201526064016105a6565b610b356113de565b600254604051631680c5cd60e01b81526001600160a01b03868116600483015290911690631680c5cd90602401602060405180830381865afa158015610b7f573d6000803e3d6000fd5b505050506040513d601f19601f82011682018060405250810190610ba39190611c08565b610be55760405162461bcd60e51b8152602060048201526013602482015272155cd95c881b9bdd081cdd589cd8dc9a589959606a1b60448201526064016105a6565b600080610bf185611408565b915091508180610c0357506006548111155b610c465760405162461bcd60e51b8152602060048201526014602482015273537562736372697074696f6e206e6f742064756560601b60448201526064016105a6565b600654600090610c568342611bcd565b610c609190611c25565b60408051610100810182526001600160a01b038a81168083528a821660208085018281528587018d81526060870189815260045460808901908152600060a08a0181815260c08b0182815260e08c018381526009805460018101825594529b5160089093027f6e1540171b6c0c960b71a7020d9f60077f6af931a8bbf590da0223dacf75c7af81018054948d166001600160a01b031995861617905596517f6e1540171b6c0c960b71a7020d9f60077f6af931a8bbf590da0223dacf75c7b08801805491909c1693169290921790995592517f6e1540171b6c0c960b71a7020d9f60077f6af931a8bbf590da0223dacf75c7b185015590517f6e1540171b6c0c960b71a7020d9f60077f6af931a8bbf590da0223dacf75c7b2840155517f6e1540171b6c0c960b71a7020d9f60077f6af931a8bbf590da0223dacf75c7b383015594517f6e1540171b6c0c960b71a7020d9f60077f6af931a8bbf590da0223dacf75c7b48201805491151560ff1990921691909117905593517f6e1540171b6c0c960b71a7020d9f60077f6af931a8bbf590da0223dacf75c7b585015593517f6e1540171b6c0c960b71a7020d9f60077f6af931a8bbf590da0223dacf75c7b690930192909255925184815293945088939092917fb4653ea766033df2addf7e75a4c903729ac94a23cb7d83759a9c78702230efc1910160405180910390a4505050610e6b60018055565b50505050565b60606000805b600954811015610f1157836001600160a01b031660098281548110610e9e57610e9e611a8d565b60009182526020909120600890910201546001600160a01b0316148015610eec575060098181548110610ed357610ed3611a8d565b600091825260209091206005600890920201015460ff16155b15610eff5781610efb81611ab9565b9250505b80610f0981611ab9565b915050610e77565b5060008167ffffffffffffffff811115610f2d57610f2d6119a8565b604051908082528060200260200182016040528015610f56578160200160208202803683370190505b5090506000805b60095481101561101557856001600160a01b031660098281548110610f8457610f84611a8d565b60009182526020909120600890910201546001600160a01b0316148015610fd2575060098181548110610fb957610fb9611a8d565b600091825260209091206005600890920201015460ff16155b156110035780838381518110610fea57610fea611a8d565b602090810291909101015281610fff81611ab9565b9250505b8061100d81611ab9565b915050610f5d565b5090949350505050565b6001600160a01b0381166000908152600f602090815260409182902080548351818402810184019094528084526060939283018282801561107f57602002820191906000526020600020905b81548152602001906001019080831161106b575b50505050509050919050565b6110bd6040518060a0016040528060008152602001600081526020016000815260200160008152602001600081525090565b506040805160a081018252600a548152600b546020820152600c5491810191909152600d546060820152600e54608082015290565b6110fa6113de565b6005543a9081111561110c5750611197565b60005b60095481101561118c5760006009828154811061112e5761112e611a8d565b60009182526020909120600890910201600581015490915060ff1615801561115a575080600301544210155b801561116a575080600401548311155b156111795761117982846114d8565b508061118481611ab9565b91505061110f565b506111956116f1565b505b610ad360018055565b6111a8611361565b80516111ee5760405162461bcd60e51b8152602060048201526015602482015274496e76616c6964206d61782067617320707269636560581b60448201526064016105a6565b60008160200151116112425760405162461bcd60e51b815260206004820152601960248201527f496e76616c6964206f7074696d616c206761732070726963650000000000000060448201526064016105a6565b60008160400151116112965760405162461bcd60e51b815260206004820152601860248201527f496e76616c696420657865637574696f6e20627566666572000000000000000060448201526064016105a6565b805160048190556020808301805160055560408085018051600655606080870180516007805460ff19169115159190911790556080808901805160085585519889529551968801969096529151928601929092525115159084015251908201527f2fa2831e0b77ca98e79bb717176f18f578eb0b015f3a023b7f1f7fe74deb30f59060a00160405180910390a150565b61132e611361565b6001600160a01b03811661135857604051631e4fbdf760e01b8152600060048201526024016105a6565b6106d08161138e565b6000546001600160a01b03163314610ad35760405163118cdaa760e01b81523360048201526024016105a6565b600080546001600160a01b038381166001600160a01b0319831681178455604051919092169283917f8be0079c531659141344cd1fd0a4f28419497f9722a3daafe3b4186f6b6457e09190a35050565b60026001540361140157604051633ee5aeb560e01b815260040160405180910390fd5b6002600155565b600080826001600160a01b031663910944146040518163ffffffff1660e01b8152600401602060405180830381865afa158015611449573d6000803e3d6000fd5b505050506040513d601f19601f8201168201806040525081019061146d9190611c08565b9150826001600160a01b0316633f15f3376040518163ffffffff1660e01b8152600401602060405180830381865afa1580156114ad573d6000803e3d6000fd5b505050506040513d601f19601f820116820180604052508101906114d19190611c38565b9050915091565b6000600983815481106114ed576114ed611a8d565b60009182526020822060016008909202019081015460408051636e30798160e01b815290519294506001600160a01b0390911692636e3079819260048084019382900301818387803b15801561154257600080fd5b505af1925050508015611553575060015b61160f5761155f611ad2565b806308c379a0036115ba5750611573611aee565b8061157e57506115bc565b81546040516001600160a01b0390911690600080516020611c68833981519152906115ac9084908790611b78565b60405180910390a250505050565b505b805460408051818152600d918101919091526c2ab735b737bbb71032b93937b960991b6060820152602081018490526001600160a01b0390911690600080516020611c6883398151915290608001610877565b60058101805460ff1916600117905542600682015560078101829055600a805490600061163b83611ab9565b91905055508181600401546116509190611c25565b600b8054600090611662908490611bcd565b909155505042600e81905581546001600160a01b039081166000908152600f602090815260408220805460018101825590835291200191909155815460048301549116907f6acec333edae4a7c9107a70f4abfe190f35b90fe9d875f6e5373471171956ba39084906116d5908290611c25565b6040805192835260208301919091524290820152606001610877565b6000805b600954811015611819576009818154811061171257611712611a8d565b600091825260209091206005600890920201015460ff16611807578082146117f9576009818154811061174757611747611a8d565b90600052602060002090600802016009838154811061176857611768611a8d565b60009182526020909120825460089092020180546001600160a01b039283166001600160a01b0319918216178255600180850154908301805491909416911617909155600280830154908201556003808301549082015560048083015490820155600580830154908201805460ff191660ff9092161515919091179055600680830154908201556007918201549101555b8161180381611ab9565b9250505b8061181181611ab9565b9150506116f5565b50805b60095481101561096157600980548061183757611837611c51565b60008281526020812060086000199093019283020180546001600160a01b03199081168255600182018054909116905560028101829055600381018290556004810182905560058101805460ff19169055600681018290556007015590558061189f81611ab9565b91505061181c565b80356001600160a01b03811681146118be57600080fd5b919050565b6000602082840312156118d557600080fd5b6118de826118a7565b9392505050565b6000602082840312156118f757600080fd5b5035919050565b6000806040838503121561191157600080fd5b61191a836118a7565b946020939093013593505050565b60008060006060848603121561193d57600080fd5b611946846118a7565b9250611954602085016118a7565b9150604084013590509250925092565b6020808252825182820181905260009190848201906040850190845b8181101561199c57835183529284019291840191600101611980565b50909695505050505050565b634e487b7160e01b600052604160045260246000fd5b601f8201601f1916810167ffffffffffffffff811182821017156119f257634e487b7160e01b600052604160045260246000fd5b6040525050565b80151581146106d057600080fd5b600060a08284031215611a1957600080fd5b60405160a0810181811067ffffffffffffffff82111715611a4a57634e487b7160e01b600052604160045260246000fd5b80604052508235815260208301356020820152604083013560408201526060830135611a75816119f9565b60608201526080928301359281019290925250919050565b634e487b7160e01b600052603260045260246000fd5b634e487b7160e01b600052601160045260246000fd5b600060018201611acb57611acb611aa3565b5060010190565b600060033d1115611aeb5760046000803e5060005160e01c5b90565b600060443d1015611afc5790565b6040516003193d81016004833e81513d67ffffffffffffffff8160248401118184111715611b2c57505050505090565b8285019150815181811115611b445750505050505090565b843d8701016020828501011115611b5e5750505050505090565b611b6d602082860101876119be565b509095945050505050565b604081526000835180604084015260005b81811015611ba65760208187018101516060868401015201611b89565b506000606082850101526060601f19601f8301168401019150508260208301529392505050565b80820180821115611be057611be0611aa3565b92915050565b600082611c0357634e487b7160e01b600052601260045260246000fd5b500490565b600060208284031215611c1a57600080fd5b81516118de816119f9565b81810381811115611be057611be0611aa3565b600060208284031215611c4a57600080fd5b5051919050565b634e487b7160e01b600052603160045260246000fdfe4722294933516b65d5bf03b5518ae4356a939005b31a22d8ab79e85e181e2103a2646970667358221220944745fa376dcb905dde5fb182cee9f2a6c16363093744d5102b6ac4ecc420bd64736f6c63430008140033",
  "linkReferences": {},
  "deployedLinkReferences": {}
}