{
  "_format": "hh-sol-artifact-1",
  "contractName": "SubscriptionSmartWalletFactory",
  "sourceName": "contracts/SubscriptionSmartWalletFactory.sol",
  "abi": [
    {
      "inputs": [
        {
          "internalType": "address",
          "name": "_entryPoint",
          "type": "address"
        },
        {
          "internalType": "address",
          "name": "_subscriptionManager",
          "type": "address"
        },
        {
          "internalType": "address",
          "name": "_gasOptimizer",
          "type": "address"
        }
      ],
      "stateMutability": "nonpayable",
      "type": "constructor"
    },
    {
      "inputs": [],
      "name": "Create2EmptyBytecode",
      "type": "error"
    },
    {
      "inputs": [],
      "name": "FailedDeployment",
      "type": "error"
    },
    {
      "inputs": [
        {
          "internalType": "uint256",
          "name": "balance",
          "type": "uint256"
        },
        {
          "internalType": "uint256",
          "name": "needed",
          "type": "uint256"
        }
      ],
      "name": "InsufficientBalance",
      "type": "error"
    },
    {
      "inputs": [
        {
          "internalType": "address",
          "name": "owner",
          "type": "address"
        }
      ],
      "name": "OwnableInvalidOwner",
      "type": "error"
    },
    {
      "inputs": [
        {
          "internalType": "address",
          "name": "account",
          "type": "address"
        }
      ],
      "name": "OwnableUnauthorizedAccount",
      "type": "error"
    },
    {
      "anonymous": false,
      "inputs": [
        {
          "indexed": true,
          "internalType": "address",
          "name": "newOptimizer",
          "type": "address"
        }
      ],
      "name": "GasOptimizerUpdated",
      "type": "event"
    },
    {
      "anonymous": false,
      "inputs": [
        {
          "indexed": true,
          "internalType": "address",
          "name": "previousOwner",
          "type": "address"
        },
        {
          "indexed": true,
          "internalType": "address",
          "name": "newOwner",
          "type": "address"
        }
      ],
      "name": "OwnershipTransferred",
      "type": "event"
    },
    {
      "anonymous": false,
      "inputs": [
        {
          "indexed": true,
          "internalType": "address",
          "name": "newManager",
          "type": "address"
        }
      ],
      "name": "SubscriptionManagerUpdated",
      "type": "event"
    },
    {
      "anonymous": false,
      "inputs": [
        {
          "indexed": true,
          "internalType": "address",
          "name": "user",
          "type": "address"
        },
        {
          "indexed": true,
          "internalType": "address",
          "name": "wallet",
          "type": "address"
        },
        {
          "indexed": true,
          "internalType": "address",
          "name": "entryPoint",
          "type": "address"
        }
      ],
      "name": "WalletCreated",
      "type": "event"
    },
    {
      "inputs": [
        {
          "internalType": "uint256",
          "name": "",
          "type": "uint256"
        }
      ],
      "name": "allWallets",
      "outputs": [
        {
          "internalType": "address",
          "name": "",
          "type": "address"
        }
      ],
      "stateMutability": "view",
      "type": "function"
    },
    {
      "inputs": [
        {
          "internalType": "address[]",
          "name": "users",
          "type": "address[]"
        },
        {
          "internalType": "uint256[]",
          "name": "salts",
          "type": "uint256[]"
        }
      ],
      "name": "batchCreateWallets",
      "outputs": [
        {
          "internalType": "address[]",
          "name": "wallets",
          "type": "address[]"
        }
      ],
      "stateMutability": "nonpayable",
      "type": "function"
    },
    {
      "inputs": [
        {
          "internalType": "address",
          "name": "user",
          "type": "address"
        },
        {
          "internalType": "uint256",
          "name": "salt",
          "type": "uint256"
        }
      ],
      "name": "createWallet",
      "outputs": [
        {
          "internalType": "address",
          "name": "wallet",
          "type": "address"
        }
      ],
      "stateMutability": "nonpayable",
      "type": "function"
    },
    {
      "inputs": [],
      "name": "entryPoint",
      "outputs": [
        {
          "internalType": "address",
          "name": "",
          "type": "address"
        }
      ],
      "stateMutability": "view",
      "type": "function"
    },
    {
      "inputs": [],
      "name": "gasOptimizer",
      "outputs": [
        {
          "internalType": "address",
          "name": "",
          "type": "address"
        }
      ],
      "stateMutability": "view",
      "type": "function"
    },
    {
      "inputs": [],
      "name": "getAllWallets",
      "outputs": [
        {
          "internalType": "address[]",
          "name": "wallets",
          "type": "address[]"
        }
      ],
      "stateMutability": "view",
      "type": "function"
    },
    {
      "inputs": [],
      "name": "getFactoryStats",
      "outputs": [
        {
          "internalType": "uint256",
          "name": "totalWallets",
          "type": "uint256"
        },
        {
          "internalType": "address",
          "name": "factoryAddress",
          "type": "address"
        },
        {
          "internalType": "address",
          "name": "entryPointAddress",
          "type": "address"
        }
      ],
      "stateMutability": "view",
      "type": "function"
    },
    {
      "inputs": [
        {
          "internalType": "address",
          "name": "user",
          "type": "address"
        }
      ],
      "name": "getUserWallet",
      "outputs": [
        {
          "internalType": "address",
          "name": "wallet",
          "type": "address"
        }
      ],
      "stateMutability": "view",
      "type": "function"
    },
    {
      "inputs": [
        {
          "internalType": "address",
          "name": "user",
          "type": "address"
        },
        {
          "internalType": "uint256",
          "name": "salt",
          "type": "uint256"
        }
      ],
      "name": "getWalletAddress",
      "outputs": [
        {
          "internalType": "address",
          "name": "wallet",
          "type": "address"
        }
      ],
      "stateMutability": "view",
      "type": "function"
    },
    {
      "inputs": [
        {
          "internalType": "address",
          "name": "user",
          "type": "address"
        }
      ],
      "name": "getWalletBytecode",
      "outputs": [
        {
          "internalType": "bytes",
          "name": "bytecode",
          "type": "bytes"
        }
      ],
      "stateMutability": "view",
      "type": "function"
    },
    {
      "inputs": [],
      "name": "getWalletCount",
      "outputs": [
        {
          "internalType": "uint256",
          "name": "count",
          "type": "uint256"
        }
      ],
      "stateMutability": "view",
      "type": "function"
    },
    {
      "inputs": [
        {
          "internalType": "address",
          "name": "wallet",
          "type": "address"
        }
      ],
      "name": "getWalletUser",
      "outputs": [
        {
          "internalType": "address",
          "name": "user",
          "type": "address"
        }
      ],
      "stateMutability": "view",
      "type": "function"
    },
    {
      "inputs": [
        {
          "internalType": "address",
          "name": "user",
          "type": "address"
        }
      ],
      "name": "hasWallet",
      "outputs": [
        {
          "internalType": "bool",
          "name": "",
          "type": "bool"
        }
      ],
      "stateMutability": "view",
      "type": "function"
    },
    {
      "inputs": [
        {
          "internalType": "address",
          "name": "user",
          "type": "address"
        },
        {
          "internalType": "address",
          "name": "wallet",
          "type": "address"
        }
      ],
      "name": "isValidWallet",
      "outputs": [
        {
          "internalType": "bool",
          "name": "isValid",
          "type": "bool"
        }
      ],
      "stateMutability": "view",
      "type": "function"
    },
    {
      "inputs": [],
      "name": "owner",
      "outputs": [
        {
          "internalType": "address",
          "name": "",
          "type": "address"
        }
      ],
      "stateMutability": "view",
      "type": "function"
    },
    {
      "inputs": [],
      "name": "renounceOwnership",
      "outputs": [],
      "stateMutability": "nonpayable",
      "type": "function"
    },
    {
      "inputs": [],
      "name": "subscriptionManager",
      "outputs": [
        {
          "internalType": "address",
          "name": "",
          "type": "address"
        }
      ],
      "stateMutability": "view",
      "type": "function"
    },
    {
      "inputs": [
        {
          "internalType": "address",
          "name": "newOwner",
          "type": "address"
        }
      ],
      "name": "transferOwnership",
      "outputs": [],
      "stateMutability": "nonpayable",
      "type": "function"
    },
    {
      "inputs": [
        {
          "internalType": "address",
          "name": "newOptimizer",
          "type": "address"
        }
      ],
      "name": "updateGasOptimizer",
      "outputs": [],
      "stateMutability": "nonpayable",
      "type": "function"
    },
    {
      "inputs": [
        {
          "internalType": "address",
          "name": "newManager",
          "type": "address"
        }
      ],
      "name": "updateSubscriptionManager",
      "outputs": [],
      "stateMutability": "nonpayable",
      "type": "function"
    },
    {
      "inputs": [
        {
          "internalType": "address",
          "name": "",
          "type": "address"
        }
      ],
      "name": "userWallets",
      "outputs": [
        {
          "internalType": "address",
          "name": "",
          "type": "address"
        }
      ],
      "stateMutability": "view",
      "type": "function"
    },
    {
      "inputs": [
        {
          "internalType": "address",
          "name": "",
          "type": "address"
        }
      ],
      "name": "walletUsers",
      "outputs": [
        {
          "internalType": "address",
          "name": "",
          "type": "address"
        }
      ],
      "stateMutability": "view",
      "type": "function"
    }
  ],
  "bytecode": "0x60a06040523480156200001157600080fd5b5060405162002a1738038062002a17833981016040819052620000349162000214565b33806200005c57604051631e4fbdf760e01b8152600060048201526024015b60405180910390fd5b6200006781620001a7565b506001600160a01b038316620000c05760405162461bcd60e51b815260206004820152601360248201527f496e76616c696420656e74727920706f696e7400000000000000000000000000604482015260640162000053565b6001600160a01b038216620001185760405162461bcd60e51b815260206004820152601c60248201527f496e76616c696420737562736372697074696f6e206d616e6167657200000000604482015260640162000053565b6001600160a01b038116620001705760405162461bcd60e51b815260206004820152601560248201527f496e76616c696420676173206f7074696d697a65720000000000000000000000604482015260640162000053565b6001600160a01b03928316608052600180549284166001600160a01b0319938416179055600280549190931691161790556200025e565b600080546001600160a01b038381166001600160a01b0319831681178455604051919092169283917f8be0079c531659141344cd1fd0a4f28419497f9722a3daafe3b4186f6b6457e09190a35050565b80516001600160a01b03811681146200020f57600080fd5b919050565b6000806000606084860312156200022a57600080fd5b6200023584620001f7565b92506200024560208501620001f7565b91506200025560408501620001f7565b90509250925092565b60805161276c620002ab6000396000818161034f0152818161039f015281816104700152818161078e0152818161096901528181610c3701528181610db30152610eb0015261276c6000f3fe60806040523480156200001157600080fd5b50600436106200015d5760003560e01c80638da5cb5b11620000c7578063bf158fd21162000086578063bf158fd21462000371578063c92264451462000385578063e05ce82014620003cc578063e3fb635414620003f8578063f247d217146200040c578063f2fde38b146200042357600080fd5b80638da5cb5b14620002da5780639ad5479314620002ec578063a17cba7d146200031b578063ae7fa4a31462000332578063b0d691fe146200034957600080fd5b80635068f54e11620001205780635068f54e146200022257806363e6ffdd1462000239578063715018a61462000265578063745bd5a2146200026f57806380dc8b0614620002815780638cf8350f14620002c357600080fd5b80630e07c80514620001625780631bfa8601146200019157806345c3642a14620001aa5780634a5cb47c14620001c15780634ba4d35714620001da575b600080fd5b6200017962000173366004620010c5565b6200043a565b60405162000188919062001109565b60405180910390f35b6200019b620004e0565b6040516200018891906200113e565b6200019b620001bb366004620011dc565b62000544565b620001d8620001d2366004620010c5565b62000a10565b005b62000209620001eb366004620010c5565b6001600160a01b039081166000908152600460205260409020541690565b6040516001600160a01b03909116815260200162000188565b620001d862000233366004620010c5565b62000abc565b620002096200024a366004620010c5565b6003602052600090815260409020546001600160a01b031681565b620001d862000b68565b60055460405190815260200162000188565b620002b262000292366004620010c5565b6001600160a01b0390811660009081526003602052604090205416151590565b604051901515815260200162000188565b62000209620002d43660046200124f565b62000b80565b6000546001600160a01b031662000209565b62000209620002fd366004620010c5565b6001600160a01b039081166000908152600360205260409020541690565b620002b26200032c36600462001269565b62000bab565b6200020962000343366004620012a1565b62000bfd565b620002097f000000000000000000000000000000000000000000000000000000000000000081565b60015462000209906001600160a01b031681565b600554604080519182523060208301526001600160a01b037f0000000000000000000000000000000000000000000000000000000000000000169082015260600162000188565b62000209620003dd366004620010c5565b6004602052600090815260409020546001600160a01b031681565b60025462000209906001600160a01b031681565b620002096200041d366004620012a1565b62000cbe565b620001d862000434366004620010c5565b62000eff565b6060604051806020016200044e906200109a565b601f1982820381018352601f909101166040819052600154600254620004aa927f00000000000000000000000000000000000000000000000000000000000000009287926001600160a01b0391821692911690602001620012ce565b60408051601f1981840301815290829052620004ca9291602001620012f9565b6040516020818303038152906040529050919050565b606060058054806020026020016040519081016040528092919081815260200182805480156200053a57602002820191906000526020600020905b81546001600160a01b031681526001909101906020018083116200051b575b5050505050905090565b60606200055062000f43565b8382146200059d5760405162461bcd60e51b8152602060048201526015602482015274082e4e4c2f240d8cadccee8d040dad2e6dac2e8c6d605b1b60448201526064015b60405180910390fd5b83620005db5760405162461bcd60e51b815260206004820152600c60248201526b456d7074792061727261797360a01b604482015260640162000594565b8367ffffffffffffffff811115620005f757620005f76200132c565b60405190808252806020026020018201604052801562000621578160200160208202803683370190505b50905060005b8481101562000a0757600086868381811062000647576200064762001342565b90506020020160208101906200065e9190620010c5565b6001600160a01b031603620006ad5760405162461bcd60e51b8152602060048201526014602482015273496e76616c69642075736572206164647265737360601b604482015260640162000594565b6000600381888885818110620006c757620006c762001342565b9050602002016020810190620006de9190620010c5565b6001600160a01b0390811682526020820192909252604001600020541614620007425760405162461bcd60e51b815260206004820152601560248201527457616c6c657420616c72656164792065786973747360581b604482015260640162000594565b600084848381811062000759576200075962001342565b9050602002013560001b905060006040518060200162000779906200109a565b601f1982820381018352601f909101166040527f0000000000000000000000000000000000000000000000000000000000000000898986818110620007c257620007c262001342565b9050602002016020810190620007d99190620010c5565b600154600254604051620008009493926001600160a01b03908116921690602001620012ce565b60408051601f1981840301815290829052620008209291602001620012f9565b60405160208183030381529060405290506000620008416000848462000f72565b905080600360008b8b888181106200085d576200085d62001342565b9050602002016020810190620008749190620010c5565b6001600160a01b039081168252602082019290925260400160002080546001600160a01b03191692909116919091179055888885818110620008ba57620008ba62001342565b9050602002016020810190620008d19190620010c5565b6001600160a01b0380831660008181526004602052604081208054949093166001600160a01b0319948516179092556005805460018101825592527f036b6384b5eca791c62761152d0c79bb0604c104a5fb6f4eb0703f3154bb3db090910180549092161790558451819086908690811062000951576200095162001342565b6001600160a01b0392831660209182029290920101527f000000000000000000000000000000000000000000000000000000000000000081169082168a8a87818110620009a257620009a262001342565b9050602002016020810190620009b99190620010c5565b6001600160a01b03167fca0b7dde26052d34217ef1a0cee48085a07ca32da0a918609937a307d496bbf560405160405180910390a45050508080620009fe9062001358565b91505062000627565b50949350505050565b62000a1a62000f43565b6001600160a01b03811662000a725760405162461bcd60e51b815260206004820152601960248201527f496e76616c6964206f7074696d697a6572206164647265737300000000000000604482015260640162000594565b600280546001600160a01b0319166001600160a01b0383169081179091556040517fb461ac4d5700700a0cd5320d78b36839186e6ca3f1e8a0a2f208e90aaba7c47f90600090a250565b62000ac662000f43565b6001600160a01b03811662000b1e5760405162461bcd60e51b815260206004820152601760248201527f496e76616c6964206d616e616765722061646472657373000000000000000000604482015260640162000594565b600180546001600160a01b0319166001600160a01b0383169081179091556040517fe39eeaab517cc0ea3e74db2817240a4473b40270c5bf11b2173e485e30d45b7d90600090a250565b62000b7262000f43565b62000b7e60006200100e565b565b6005818154811062000b9157600080fd5b6000918252602090912001546001600160a01b0316905081565b6001600160a01b038281166000908152600360205260408120549091838116911614801562000bf657506001600160a01b038281166000908152600460205260409020548116908416145b9392505050565b6040516000908290829062000c15602082016200109a565b601f1982820381018352601f90910116604081905260015460025462000c71927f0000000000000000000000000000000000000000000000000000000000000000928a926001600160a01b0391821692911690602001620012ce565b60408051601f198184030181529082905262000c919291602001620012f9565b604051602081830303815290604052905062000cb58282805190602001206200105e565b95945050505050565b600062000cca62000f43565b6001600160a01b03831662000d195760405162461bcd60e51b8152602060048201526014602482015273496e76616c69642075736572206164647265737360601b604482015260640162000594565b6001600160a01b03838116600090815260036020526040902054161562000d7b5760405162461bcd60e51b815260206004820152601560248201527457616c6c657420616c72656164792065786973747360581b604482015260640162000594565b604051829060009062000d91602082016200109a565b601f1982820381018352601f90910116604081905260015460025462000ded927f0000000000000000000000000000000000000000000000000000000000000000928a926001600160a01b0391821692911690602001620012ce565b60408051601f198184030181529082905262000e0d9291602001620012f9565b604051602081830303815290604052905062000e2c6000838362000f72565b6001600160a01b03808716600081815260036020908152604080832080548688166001600160a01b0319918216811790925581855260049093528184208054841686179055600580546001810182559085527f036b6384b5eca791c62761152d0c79bb0604c104a5fb6f4eb0703f3154bb3db00180549093168117909255519497507f0000000000000000000000000000000000000000000000000000000000000000909316937fca0b7dde26052d34217ef1a0cee48085a07ca32da0a918609937a307d496bbf59190a4505092915050565b62000f0962000f43565b6001600160a01b03811662000f3557604051631e4fbdf760e01b81526000600482015260240162000594565b62000f40816200100e565b50565b6000546001600160a01b0316331462000b7e5760405163118cdaa760e01b815233600482015260240162000594565b60008347101562000fa05760405163cf47918160e01b81524760048201526024810185905260440162000594565b815160000362000fc357604051631328927760e21b815260040160405180910390fd5b8282516020840186f590503d15198115161562000fe6576040513d6000823e3d81fd5b6001600160a01b03811662000bf65760405163b06ebf3d60e01b815260040160405180910390fd5b600080546001600160a01b038381166001600160a01b0319831681178455604051919092169283917f8be0079c531659141344cd1fd0a4f28419497f9722a3daafe3b4186f6b6457e09190a35050565b600062000bf68383306000604051836040820152846020820152828152600b8101905060ff8153605590206001600160a01b0316949350505050565b6113b6806200138183390190565b80356001600160a01b0381168114620010c057600080fd5b919050565b600060208284031215620010d857600080fd5b62000bf682620010a8565b60005b8381101562001100578181015183820152602001620010e6565b50506000910152565b60208152600082518060208401526200112a816040850160208701620010e3565b601f01601f19169190910160400192915050565b6020808252825182820181905260009190848201906040850190845b81811015620011815783516001600160a01b0316835292840192918401916001016200115a565b50909695505050505050565b60008083601f840112620011a057600080fd5b50813567ffffffffffffffff811115620011b957600080fd5b6020830191508360208260051b8501011115620011d557600080fd5b9250929050565b60008060008060408587031215620011f357600080fd5b843567ffffffffffffffff808211156200120c57600080fd5b6200121a888389016200118d565b909650945060208701359150808211156200123457600080fd5b5062001243878288016200118d565b95989497509550505050565b6000602082840312156200126257600080fd5b5035919050565b600080604083850312156200127d57600080fd5b6200128883620010a8565b91506200129860208401620010a8565b90509250929050565b60008060408385031215620012b557600080fd5b620012c083620010a8565b946020939093013593505050565b6001600160a01b03948516815292841660208401529083166040830152909116606082015260800190565b600083516200130d818460208801620010e3565b83519083019062001323818360208801620010e3565b01949350505050565b634e487b7160e01b600052604160045260246000fd5b634e487b7160e01b600052603260045260246000fd5b6000600182016200137957634e487b7160e01b600052601160045260246000fd5b506001019056fe60a06040523480156200001157600080fd5b50604051620013b6380380620013b6833981016040819052620000349162000095565b6001600160a01b03938416608052600280549385166001600160a01b0319948516179055600080549285169284169290921790915560018054919093169116179055620000fd565b6001600160a01b03811681146200009257600080fd5b50565b60008060008060808587031215620000ac57600080fd5b8451620000b9816200007c565b6020860151909450620000cc816200007c565b6040860151909350620000df816200007c565b6060860151909250620000f2816200007c565b939692955090935050565b60805161128f62000127600039600081816101c301528181610b140152610b92015261128f6000f3fe608060405234801561001057600080fd5b50600436106101005760003560e01c8063921b004b11610097578063d087d28811610066578063d087d2881461020d578063d48d527c14610215578063e3fb635414610278578063ff0b906c1461028b57600080fd5b8063921b004b146101ae578063b0d691fe146101c1578063bf158fd2146101e7578063c1075329146101fa57600080fd5b80633f15f337116100d35780633f15f3371461015b5780636e307981146101635780638da5cb5b1461016b578063910944141461019657600080fd5b806320ece7661461010557806324e9edb01461011a5780633492295e146101225780633a871cdd14610135575b600080fd5b61011861011336600461102f565b61035d565b005b61011861045c565b6101186101303660046110b6565b610515565b6101486101433660046110ef565b610779565b6040519081526020015b60405180910390f35b61014861079f565b6101186107d4565b60025461017e906001600160a01b031681565b6040516001600160a01b039091168152602001610152565b61019e6109f0565b6040519015158152602001610152565b6101186101bc366004611143565b610a0a565b7f000000000000000000000000000000000000000000000000000000000000000061017e565b60005461017e906001600160a01b031681565b610118610208366004611143565b610a4d565b610148610af5565b60035460045460055460065460075460085461023f956001600160a01b03169493929160ff169086565b604080516001600160a01b03909716875260208701959095529385019290925260608401521515608083015260a082015260c001610152565b60015461017e906001600160a01b031681565b61030b6040805160c081018252600080825260208201819052918101829052606081018290526080810182905260a0810191909152506040805160c0810182526003546001600160a01b03168152600454602082015260055491810191909152600654606082015260075460ff161515608082015260085460a082015290565b604051610152919081516001600160a01b0316815260208083015190820152604080830151908201526060808301519082015260808083015115159082015260a0918201519181019190915260c00190565b6001546001600160a01b031633146103b05760405162461bcd60e51b81526020600482015260116024820152702737ba1033b0b99037b83a34b6b4bd32b960791b60448201526064015b60405180910390fd5b6000846001600160a01b03168484846040516103cd92919061116d565b60006040518083038185875af1925050503d806000811461040a576040519150601f19603f3d011682016040523d82523d6000602084013e61040f565b606091505b50509050806104555760405162461bcd60e51b8152602060048201526012602482015271151c985b9cd858dd1a5bdb8819985a5b195960721b60448201526064016103a7565b5050505050565b6002546001600160a01b031633146104865760405162461bcd60e51b81526004016103a79061117d565b60075460ff166104d15760405162461bcd60e51b815260206004820152601660248201527527379030b1ba34bb329039bab139b1b934b83a34b7b760511b60448201526064016103a7565b6007805460ff191690556002546040516001600160a01b03909116907f71215198e3f86c24dc3af6d0d7f84d0095e5ee736aa56daf9927fae51935e95d90600090a2565b6000546001600160a01b0316331461056f5760405162461bcd60e51b815260206004820152601860248201527f4e6f7420737562736372697074696f6e206d616e61676572000000000000000060448201526064016103a7565b60075460ff16156105c25760405162461bcd60e51b815260206004820152601b60248201527f537562736372697074696f6e20616c726561647920616374697665000000000060448201526064016103a7565b6001600160a01b0384166106085760405162461bcd60e51b815260206004820152600d60248201526c24b73b30b634b2103a37b5b2b760991b60448201526064016103a7565b600083116106495760405162461bcd60e51b815260206004820152600e60248201526d125b9d985b1a5908185b5bdd5b9d60921b60448201526064016103a7565b6000821161068c5760405162461bcd60e51b815260206004820152601060248201526f125b9d985b1a59081a5b9d195c9d985b60821b60448201526064016103a7565b6040518060c00160405280856001600160a01b0316815260200184815260200183815260200183426106be91906111b6565b8152600160208083019190915260409182018490528251600380546001600160a01b0319166001600160a01b0392831617905583820151600455838301516005556060808501516006556080808601516007805460ff191691151591909117905560a09095015160085560025484518a84168152938401899052938301879052820185905291909116917fa8ed0890c82f97e6297b271de857057cee2dbbf13a5c7eba806bab3065533daa910160405180910390a250505050565b6000610783610b87565b61078d8484610c01565b905061079882610cb3565b9392505050565b60075460009060ff166107b25750600090565b60065442106107c15750600090565b6006546107cf9042906111c9565b905090565b6001546001600160a01b031633146108225760405162461bcd60e51b81526020600482015260116024820152702737ba1033b0b99037b83a34b6b4bd32b960791b60448201526064016103a7565b60075460ff1661086d5760405162461bcd60e51b815260206004820152601660248201527527379030b1ba34bb329039bab139b1b934b83a34b7b760511b60448201526064016103a7565b6006544210156108b65760405162461bcd60e51b8152602060048201526014602482015273139bdd081d1a5b5948199bdc881c995b995dd85b60621b60448201526064016103a7565b600354600480546040516370a0823160e01b815230928101929092526001600160a01b039092169190819083906370a0823190602401602060405180830381865afa158015610909573d6000803e3d6000fd5b505050506040513d601f19601f8201168201806040525081019061092d91906111dc565b10156109725760405162461bcd60e51b8152602060048201526014602482015273496e73756666696369656e742062616c616e636560601b60448201526064016103a7565b60005461098c906001600160a01b03848116911683610d00565b60055461099990426111b6565b60068190556002546040516001600160a01b03909116917f0844521bd3c7295df35ca72576b1c04b6061d23891276d5c077cd73cbb3d31fc916109e491858252602082015260400190565b60405180910390a25050565b60075460009060ff1680156107cf57505060065442101590565b6002546001600160a01b03163314610a345760405162461bcd60e51b81526004016103a79061117d565b610a496001600160a01b038316333084610d64565b5050565b6002546001600160a01b03163314610a775760405162461bcd60e51b81526004016103a79061117d565b60075460ff1615610adb5760405162461bcd60e51b815260206004820152602860248201527f43616e6e6f74207769746864726177207769746820616374697665207375627360448201526731b934b83a34b7b760c11b60648201526084016103a7565b600254610a49906001600160a01b03848116911683610d00565b604051631aab3f0d60e11b8152306004820152600060248201819052907f00000000000000000000000000000000000000000000000000000000000000006001600160a01b0316906335567e1a90604401602060405180830381865afa158015610b63573d6000803e3d6000fd5b505050506040513d601f19601f820116820180604052508101906107cf91906111dc565b336001600160a01b037f00000000000000000000000000000000000000000000000000000000000000001614610bff5760405162461bcd60e51b815260206004820152601c60248201527f6163636f756e743a206e6f742066726f6d20456e747279506f696e740000000060448201526064016103a7565b565b7f19457468657265756d205369676e6564204d6573736167653a0a3332000000006000908152601c829052603c81206000610c80610c436101408701876111f5565b8080601f0160208091040260200160405190810160405280939291908181526020018383808284376000920191909152508693925050610da39050565b6002549091506001600160a01b03808316911614610ca357600192505050610caa565b6000925050505b92915050565b50565b8015610cb057604051600090339060001990849084818181858888f193505050503d8060008114610455576040519150601f19603f3d011682016040523d82523d6000602084013e610455565b6040516001600160a01b03838116602483015260448201839052610d5f91859182169063a9059cbb906064015b604051602081830303815290604052915060e01b6020820180516001600160e01b038381831617835250505050610dcd565b505050565b6040516001600160a01b038481166024830152838116604483015260648201839052610d9d9186918216906323b872dd90608401610d2d565b50505050565b600080600080610db38686610e3e565b925092509250610dc38282610e8b565b5090949350505050565b600080602060008451602086016000885af180610df0576040513d6000823e3d81fd5b50506000513d91508115610e08578060011415610e15565b6001600160a01b0384163b155b15610d9d57604051635274afe760e01b81526001600160a01b03851660048201526024016103a7565b60008060008351604103610e785760208401516040850151606086015160001a610e6a88828585610f44565b955095509550505050610e84565b50508151600091506002905b9250925092565b6000826003811115610e9f57610e9f611243565b03610ea8575050565b6001826003811115610ebc57610ebc611243565b03610eda5760405163f645eedf60e01b815260040160405180910390fd5b6002826003811115610eee57610eee611243565b03610f0f5760405163fce698f760e01b8152600481018290526024016103a7565b6003826003811115610f2357610f23611243565b03610a49576040516335e2f38360e21b8152600481018290526024016103a7565b600080807f7fffffffffffffffffffffffffffffff5d576e7357a4501ddfe92f46681b20a0841115610f7f5750600091506003905082611009565b604080516000808252602082018084528a905260ff891692820192909252606081018790526080810186905260019060a0016020604051602081039080840390855afa158015610fd3573d6000803e3d6000fd5b5050604051601f1901519150506001600160a01b038116610fff57506000925060019150829050611009565b9250600091508190505b9450945094915050565b80356001600160a01b038116811461102a57600080fd5b919050565b6000806000806060858703121561104557600080fd5b61104e85611013565b935060208501359250604085013567ffffffffffffffff8082111561107257600080fd5b818701915087601f83011261108657600080fd5b81358181111561109557600080fd5b8860208285010111156110a757600080fd5b95989497505060200194505050565b600080600080608085870312156110cc57600080fd5b6110d585611013565b966020860135965060408601359560600135945092505050565b60008060006060848603121561110457600080fd5b833567ffffffffffffffff81111561111b57600080fd5b8401610160818703121561112e57600080fd5b95602085013595506040909401359392505050565b6000806040838503121561115657600080fd5b61115f83611013565b946020939093013593505050565b8183823760009101908152919050565b6020808252600990820152682737ba1037bbb732b960b91b604082015260600190565b634e487b7160e01b600052601160045260246000fd5b80820180821115610caa57610caa6111a0565b81810381811115610caa57610caa6111a0565b6000602082840312156111ee57600080fd5b5051919050565b6000808335601e1984360301811261120c57600080fd5b83018035915067ffffffffffffffff82111561122757600080fd5b60200191503681900382131561123c57600080fd5b9250929050565b634e487b7160e01b600052602160045260246000fdfea26469706673582212204494490c318d67f1a7a128e7fc0d23dd0e2306b1b655ab12a5dc0e5d708710d164736f6c63430008140033a26469706673582212202a1bcb4c5b2bc0153e29a6a73eaa4e416dc30816fcdc2a8e91f0650cb9f0f7b364736f6c63430008140033",
  "linkReferences": {},
  "deployedLinkReferences": {}
}