{
  "_format": "hh-sol-artifact-1",
  "contractName": "SubscriptionSmartWallet",
  "sourceName": "contracts/SubscriptionSmartWallet.sol",
  "abi": [
    {
      "inputs": [
        {
          "internalType": "contract IEntryPoint",
          "name": "entryPoint_",
          "type": "address"
        },
        {
          "internalType": "address",
          "name": "_owner",
          "type": "address"
        },
        {
          "internalType": "address",
          "name": "_subscriptionManager",
          "type": "address"
        },
        {
          "internalType": "address",
          "name": "_gasOptimizer",
          "type": "address"
        }
      ],
      "stateMutability": "nonpayable",
      "type": "constructor"
    },
    {
      "inputs": [],
      "name": "ECDSAInvalidSignature",
      "type": "error"
    },
    {
      "inputs": [
        {
          "internalType": "uint256",
          "name": "length",
          "type": "uint256"
        }
      ],
      "name": "ECDSAInvalidSignatureLength",
      "type": "error"
    },
    {
      "inputs": [
        {
          "internalType": "bytes32",
          "name": "s",
          "type": "bytes32"
        }
      ],
      "name": "ECDSAInvalidSignatureS",
      "type": "error"
    },
    {
      "inputs": [
        {
          "internalType": "address",
          "name": "token",
          "type": "address"
        }
      ],
      "name": "SafeERC20FailedOperation",
      "type": "error"
    },
    {
      "anonymous": false,
      "inputs": [
        {
          "indexed": true,
          "internalType": "address",
          "name": "user",
          "type": "address"
        },
        {
          "indexed": false,
          "internalType": "uint256",
          "name": "gasPrice",
          "type": "uint256"
        },
        {
          "indexed": false,
          "internalType": "uint256",
          "name": "timestamp",
          "type": "uint256"
        }
      ],
      "name": "GasOptimized",
      "type": "event"
    },
    {
      "anonymous": false,
      "inputs": [
        {
          "indexed": true,
          "internalType": "address",
          "name": "user",
          "type": "address"
        }
      ],
      "name": "SubscriptionCancelled",
      "type": "event"
    },
    {
      "anonymous": false,
      "inputs": [
        {
          "indexed": true,
          "internalType": "address",
          "name": "user",
          "type": "address"
        },
        {
          "indexed": false,
          "internalType": "address",
          "name": "token",
          "type": "address"
        },
        {
          "indexed": false,
          "internalType": "uint256",
          "name": "amount",
          "type": "uint256"
        },
        {
          "indexed": false,
          "internalType": "uint256",
          "name": "interval",
          "type": "uint256"
        },
        {
          "indexed": false,
          "internalType": "bytes32",
          "name": "intentHash",
          "type": "bytes32"
        }
      ],
      "name": "SubscriptionCreated",
      "type": "event"
    },
    {
      "anonymous": false,
      "inputs": [
        {
          "indexed": true,
          "internalType": "address",
          "name": "user",
          "type": "address"
        },
        {
          "indexed": false,
          "internalType": "uint256",
          "name": "amount",
          "type": "uint256"
        },
        {
          "indexed": false,
          "internalType": "uint256",
          "name": "nextBilling",
          "type": "uint256"
        }
      ],
      "name": "SubscriptionRenewed",
      "type": "event"
    },
    {
      "inputs": [],
      "name": "cancelSubscription",
      "outputs": [],
      "stateMutability": "nonpayable",
      "type": "function"
    },
    {
      "inputs": [
        {
          "internalType": "address",
          "name": "token",
          "type": "address"
        },
        {
          "internalType": "uint256",
          "name": "amount",
          "type": "uint256"
        },
        {
          "internalType": "uint256",
          "name": "interval",
          "type": "uint256"
        },
        {
          "internalType": "bytes32",
          "name": "intentHash",
          "type": "bytes32"
        }
      ],
      "name": "createSubscription",
      "outputs": [],
      "stateMutability": "nonpayable",
      "type": "function"
    },
    {
      "inputs": [
        {
          "internalType": "address",
          "name": "token",
          "type": "address"
        },
        {
          "internalType": "uint256",
          "name": "amount",
          "type": "uint256"
        }
      ],
      "name": "depositFunds",
      "outputs": [],
      "stateMutability": "nonpayable",
      "type": "function"
    },
    {
      "inputs": [],
      "name": "entryPoint",
      "outputs": [
        {
          "internalType": "contract IEntryPoint",
          "name": "",
          "type": "address"
        }
      ],
      "stateMutability": "view",
      "type": "function"
    },
    {
      "inputs": [
        {
          "internalType": "address",
          "name": "to",
          "type": "address"
        },
        {
          "internalType": "uint256",
          "name": "value",
          "type": "uint256"
        },
        {
          "internalType": "bytes",
          "name": "data",
          "type": "bytes"
        }
      ],
      "name": "executeOptimizedTransaction",
      "outputs": [],
      "stateMutability": "nonpayable",
      "type": "function"
    },
    {
      "inputs": [],
      "name": "gasOptimizer",
      "outputs": [
        {
          "internalType": "address",
          "name": "",
          "type": "address"
        }
      ],
      "stateMutability": "view",
      "type": "function"
    },
    {
      "inputs": [],
      "name": "getNonce",
      "outputs": [
        {
          "internalType": "uint256",
          "name": "",
          "type": "uint256"
        }
      ],
      "stateMutability": "view",
      "type": "function"
    },
    {
      "inputs": [],
      "name": "getSubscription",
      "outputs": [
        {
          "components": [
            {
              "internalType": "address",
              "name": "token",
              "type": "address"
            },
            {
              "internalType": "uint256",
              "name": "amount",
              "type": "uint256"
            },
            {
              "internalType": "uint256",
              "name": "interval",
              "type": "uint256"
            },
            {
              "internalType": "uint256",
              "name": "nextBilling",
              "type": "uint256"
            },
            {
              "internalType": "bool",
              "name": "active",
              "type": "bool"
            },
            {
              "internalType": "bytes32",
              "name": "intentHash",
              "type": "bytes32"
            }
          ],
          "internalType": "struct SubscriptionSmartWallet.Subscription",
          "name": "",
          "type": "tuple"
        }
      ],
      "stateMutability": "view",
      "type": "function"
    },
    {
      "inputs": [],
      "name": "getTimeUntilNextBilling",
      "outputs": [
        {
          "internalType": "uint256",
          "name": "",
          "type": "uint256"
        }
      ],
      "stateMutability": "view",
      "type": "function"
    },
    {
      "inputs": [],
      "name": "isSubscriptionDue",
      "outputs": [
        {
          "internalType": "bool",
          "name": "",
          "type": "bool"
        }
      ],
      "stateMutability": "view",
      "type": "function"
    },
    {
      "inputs": [],
      "name": "owner",
      "outputs": [
        {
          "internalType": "address",
          "name": "",
          "type": "address"
        }
      ],
      "stateMutability": "view",
      "type": "function"
    },
    {
      "inputs": [],
      "name": "renewSubscription",
      "outputs": [],
      "stateMutability": "nonpayable",
      "type": "function"
    },
    {
      "inputs": [],
      "name": "subscriptionManager",
      "outputs": [
        {
          "internalType": "address",
          "name": "",
          "type": "address"
        }
      ],
      "stateMutability": "view",
      "type": "function"
    },
    {
      "inputs": [],
      "name": "userSubscription",
      "outputs": [
        {
          "internalType": "address",
          "name": "token",
          "type": "address"
        },
        {
          "internalType": "uint256",
          "name": "amount",
          "type": "uint256"
        },
        {
          "internalType": "uint256",
          "name": "interval",
          "type": "uint256"
        },
        {
          "internalType": "uint256",
          "name": "nextBilling",
          "type": "uint256"
        },
        {
          "internalType": "bool",
          "name": "active",
          "type": "bool"
        },
        {
          "internalType": "bytes32",
          "name": "intentHash",
          "type": "bytes32"
        }
      ],
      "stateMutability": "view",
      "type": "function"
    },
    {
      "inputs": [
        {
          "components": [
            {
              "internalType": "address",
              "name": "sender",
              "type": "address"
            },
            {
              "internalType": "uint256",
              "name": "nonce",
              "type": "uint256"
            },
            {
              "internalType": "bytes",
              "name": "initCode",
              "type": "bytes"
            },
            {
              "internalType": "bytes",
              "name": "callData",
              "type": "bytes"
            },
            {
              "internalType": "uint256",
              "name": "callGasLimit",
              "type": "uint256"
            },
            {
              "internalType": "uint256",
              "name": "verificationGasLimit",
              "type": "uint256"
            },
            {
              "internalType": "uint256",
              "name": "preVerificationGas",
              "type": "uint256"
            },
            {
              "internalType": "uint256",
              "name": "maxFeePerGas",
              "type": "uint256"
            },
            {
              "internalType": "uint256",
              "name": "maxPriorityFeePerGas",
              "type": "uint256"
            },
            {
              "internalType": "bytes",
              "name": "paymasterAndData",
              "type": "bytes"
            },
            {
              "internalType": "bytes",
              "name": "signature",
              "type": "bytes"
            }
          ],
          "internalType": "struct UserOperation",
          "name": "userOp",
          "type": "tuple"
        },
        {
          "internalType": "bytes32",
          "name": "userOpHash",
          "type": "bytes32"
        },
        {
          "internalType": "uint256",
          "name": "missingAccountFunds",
          "type": "uint256"
        }
      ],
      "name": "validateUserOp",
      "outputs": [
        {
          "internalType": "uint256",
          "name": "validationData",
          "type": "uint256"
        }
      ],
      "stateMutability": "nonpayable",
      "type": "function"
    },
    {
      "inputs": [
        {
          "internalType": "address",
          "name": "token",
          "type": "address"
        },
        {
          "internalType": "uint256",
          "name": "amount",
          "type": "uint256"
        }
      ],
      "name": "withdrawFunds",
      "outputs": [],
      "stateMutability": "nonpayable",
      "type": "function"
    }
  ],
  "bytecode": "0x60a06040523480156200001157600080fd5b50604051620013b6380380620013b6833981016040819052620000349162000095565b6001600160a01b03938416608052600280549385166001600160a01b0319948516179055600080549285169284169290921790915560018054919093169116179055620000fd565b6001600160a01b03811681146200009257600080fd5b50565b60008060008060808587031215620000ac57600080fd5b8451620000b9816200007c565b6020860151909450620000cc816200007c565b6040860151909350620000df816200007c565b6060860151909250620000f2816200007c565b939692955090935050565b60805161128f62000127600039600081816101c301528181610b140152610b92015261128f6000f3fe608060405234801561001057600080fd5b50600436106101005760003560e01c8063921b004b11610097578063d087d28811610066578063d087d2881461020d578063d48d527c14610215578063e3fb635414610278578063ff0b906c1461028b57600080fd5b8063921b004b146101ae578063b0d691fe146101c1578063bf158fd2146101e7578063c1075329146101fa57600080fd5b80633f15f337116100d35780633f15f3371461015b5780636e307981146101635780638da5cb5b1461016b578063910944141461019657600080fd5b806320ece7661461010557806324e9edb01461011a5780633492295e146101225780633a871cdd14610135575b600080fd5b61011861011336600461102f565b61035d565b005b61011861045c565b6101186101303660046110b6565b610515565b6101486101433660046110ef565b610779565b6040519081526020015b60405180910390f35b61014861079f565b6101186107d4565b60025461017e906001600160a01b031681565b6040516001600160a01b039091168152602001610152565b61019e6109f0565b6040519015158152602001610152565b6101186101bc366004611143565b610a0a565b7f000000000000000000000000000000000000000000000000000000000000000061017e565b60005461017e906001600160a01b031681565b610118610208366004611143565b610a4d565b610148610af5565b60035460045460055460065460075460085461023f956001600160a01b03169493929160ff169086565b604080516001600160a01b03909716875260208701959095529385019290925260608401521515608083015260a082015260c001610152565b60015461017e906001600160a01b031681565b61030b6040805160c081018252600080825260208201819052918101829052606081018290526080810182905260a0810191909152506040805160c0810182526003546001600160a01b03168152600454602082015260055491810191909152600654606082015260075460ff161515608082015260085460a082015290565b604051610152919081516001600160a01b0316815260208083015190820152604080830151908201526060808301519082015260808083015115159082015260a0918201519181019190915260c00190565b6001546001600160a01b031633146103b05760405162461bcd60e51b81526020600482015260116024820152702737ba1033b0b99037b83a34b6b4bd32b960791b60448201526064015b60405180910390fd5b6000846001600160a01b03168484846040516103cd92919061116d565b60006040518083038185875af1925050503d806000811461040a576040519150601f19603f3d011682016040523d82523d6000602084013e61040f565b606091505b50509050806104555760405162461bcd60e51b8152602060048201526012602482015271151c985b9cd858dd1a5bdb8819985a5b195960721b60448201526064016103a7565b5050505050565b6002546001600160a01b031633146104865760405162461bcd60e51b81526004016103a79061117d565b60075460ff166104d15760405162461bcd60e51b815260206004820152601660248201527527379030b1ba34bb329039bab139b1b934b83a34b7b760511b60448201526064016103a7565b6007805460ff191690556002546040516001600160a01b03909116907f71215198e3f86c24dc3af6d0d7f84d0095e5ee736aa56daf9927fae51935e95d90600090a2565b6000546001600160a01b0316331461056f5760405162461bcd60e51b815260206004820152601860248201527f4e6f7420737562736372697074696f6e206d616e61676572000000000000000060448201526064016103a7565b60075460ff16156105c25760405162461bcd60e51b815260206004820152601b60248201527f537562736372697074696f6e20616c726561647920616374697665000000000060448201526064016103a7565b6001600160a01b0384166106085760405162461bcd60e51b815260206004820152600d60248201526c24b73b30b634b2103a37b5b2b760991b60448201526064016103a7565b600083116106495760405162461bcd60e51b815260206004820152600e60248201526d125b9d985b1a5908185b5bdd5b9d60921b60448201526064016103a7565b6000821161068c5760405162461bcd60e51b815260206004820152601060248201526f125b9d985b1a59081a5b9d195c9d985b60821b60448201526064016103a7565b6040518060c00160405280856001600160a01b0316815260200184815260200183815260200183426106be91906111b6565b8152600160208083019190915260409182018490528251600380546001600160a01b0319166001600160a01b0392831617905583820151600455838301516005556060808501516006556080808601516007805460ff191691151591909117905560a09095015160085560025484518a84168152938401899052938301879052820185905291909116917fa8ed0890c82f97e6297b271de857057cee2dbbf13a5c7eba806bab3065533daa910160405180910390a250505050565b6000610783610b87565b61078d8484610c01565b905061079882610cb3565b9392505050565b60075460009060ff166107b25750600090565b60065442106107c15750600090565b6006546107cf9042906111c9565b905090565b6001546001600160a01b031633146108225760405162461bcd60e51b81526020600482015260116024820152702737ba1033b0b99037b83a34b6b4bd32b960791b60448201526064016103a7565b60075460ff1661086d5760405162461bcd60e51b815260206004820152601660248201527527379030b1ba34bb329039bab139b1b934b83a34b7b760511b60448201526064016103a7565b6006544210156108b65760405162461bcd60e51b8152602060048201526014602482015273139bdd081d1a5b5948199bdc881c995b995dd85b60621b60448201526064016103a7565b600354600480546040516370a0823160e01b815230928101929092526001600160a01b039092169190819083906370a0823190602401602060405180830381865afa158015610909573d6000803e3d6000fd5b505050506040513d601f19601f8201168201806040525081019061092d91906111dc565b10156109725760405162461bcd60e51b8152602060048201526014602482015273496e73756666696369656e742062616c616e636560601b60448201526064016103a7565b60005461098c906001600160a01b03848116911683610d00565b60055461099990426111b6565b60068190556002546040516001600160a01b03909116917f0844521bd3c7295df35ca72576b1c04b6061d23891276d5c077cd73cbb3d31fc916109e491858252602082015260400190565b60405180910390a25050565b60075460009060ff1680156107cf57505060065442101590565b6002546001600160a01b03163314610a345760405162461bcd60e51b81526004016103a79061117d565b610a496001600160a01b038316333084610d64565b5050565b6002546001600160a01b03163314610a775760405162461bcd60e51b81526004016103a79061117d565b60075460ff1615610adb5760405162461bcd60e51b815260206004820152602860248201527f43616e6e6f74207769746864726177207769746820616374697665207375627360448201526731b934b83a34b7b760c11b60648201526084016103a7565b600254610a49906001600160a01b03848116911683610d00565b604051631aab3f0d60e11b8152306004820152600060248201819052907f00000000000000000000000000000000000000000000000000000000000000006001600160a01b0316906335567e1a90604401602060405180830381865afa158015610b63573d6000803e3d6000fd5b505050506040513d601f19601f820116820180604052508101906107cf91906111dc565b336001600160a01b037f00000000000000000000000000000000000000000000000000000000000000001614610bff5760405162461bcd60e51b815260206004820152601c60248201527f6163636f756e743a206e6f742066726f6d20456e747279506f696e740000000060448201526064016103a7565b565b7f19457468657265756d205369676e6564204d6573736167653a0a3332000000006000908152601c829052603c81206000610c80610c436101408701876111f5565b8080601f0160208091040260200160405190810160405280939291908181526020018383808284376000920191909152508693925050610da39050565b6002549091506001600160a01b03808316911614610ca357600192505050610caa565b6000925050505b92915050565b50565b8015610cb057604051600090339060001990849084818181858888f193505050503d8060008114610455576040519150601f19603f3d011682016040523d82523d6000602084013e610455565b6040516001600160a01b03838116602483015260448201839052610d5f91859182169063a9059cbb906064015b604051602081830303815290604052915060e01b6020820180516001600160e01b038381831617835250505050610dcd565b505050565b6040516001600160a01b038481166024830152838116604483015260648201839052610d9d9186918216906323b872dd90608401610d2d565b50505050565b600080600080610db38686610e3e565b925092509250610dc38282610e8b565b5090949350505050565b600080602060008451602086016000885af180610df0576040513d6000823e3d81fd5b50506000513d91508115610e08578060011415610e15565b6001600160a01b0384163b155b15610d9d57604051635274afe760e01b81526001600160a01b03851660048201526024016103a7565b60008060008351604103610e785760208401516040850151606086015160001a610e6a88828585610f44565b955095509550505050610e84565b50508151600091506002905b9250925092565b6000826003811115610e9f57610e9f611243565b03610ea8575050565b6001826003811115610ebc57610ebc611243565b03610eda5760405163f645eedf60e01b815260040160405180910390fd5b6002826003811115610eee57610eee611243565b03610f0f5760405163fce698f760e01b8152600481018290526024016103a7565b6003826003811115610f2357610f23611243565b03610a49576040516335e2f38360e21b8152600481018290526024016103a7565b600080807f7fffffffffffffffffffffffffffffff5d576e7357a4501ddfe92f46681b20a0841115610f7f5750600091506003905082611009565b604080516000808252602082018084528a905260ff891692820192909252606081018790526080810186905260019060a0016020604051602081039080840390855afa158015610fd3573d6000803e3d6000fd5b5050604051601f1901519150506001600160a01b038116610fff57506000925060019150829050611009565b9250600091508190505b9450945094915050565b80356001600160a01b038116811461102a57600080fd5b919050565b6000806000806060858703121561104557600080fd5b61104e85611013565b935060208501359250604085013567ffffffffffffffff8082111561107257600080fd5b818701915087601f83011261108657600080fd5b81358181111561109557600080fd5b8860208285010111156110a757600080fd5b95989497505060200194505050565b600080600080608085870312156110cc57600080fd5b6110d585611013565b966020860135965060408601359560600135945092505050565b60008060006060848603121561110457600080fd5b833567ffffffffffffffff81111561111b57600080fd5b8401610160818703121561112e57600080fd5b95602085013595506040909401359392505050565b6000806040838503121561115657600080fd5b61115f83611013565b946020939093013593505050565b8183823760009101908152919050565b6020808252600990820152682737ba1037bbb732b960b91b604082015260600190565b634e487b7160e01b600052601160045260246000fd5b80820180821115610caa57610caa6111a0565b81810381811115610caa57610caa6111a0565b6000602082840312156111ee57600080fd5b5051919050565b6000808335601e1984360301811261120c57600080fd5b83018035915067ffffffffffffffff82111561122757600080fd5b60200191503681900382131561123c57600080fd5b9250929050565b634e487b7160e01b600052602160045260246000fdfea26469706673582212204494490c318d67f1a7a128e7fc0d23dd0e2306b1b655ab12a5dc0e5d708710d164736f6c63430008140033",
  "linkReferences": {},
  "deployedLinkReferences": {}
}