{
  "_format": "hh-sol-artifact-1",
  "contractName": "SimpleSubscriptionManager",
  "sourceName": "contracts/SimpleSubscriptionManager.sol",
  "abi": [
    {
      "inputs": [],
      "stateMutability": "nonpayable",
      "type": "constructor"
    },
    {
      "inputs": [
        {
          "internalType": "address",
          "name": "owner",
          "type": "address"
        }
      ],
      "name": "OwnableInvalidOwner",
      "type": "error"
    },
    {
      "inputs": [
        {
          "internalType": "address",
          "name": "account",
          "type": "address"
        }
      ],
      "name": "OwnableUnauthorizedAccount",
      "type": "error"
    },
    {
      "inputs": [],
      "name": "ReentrancyGuardReentrantCall",
      "type": "error"
    },
    {
      "inputs": [
        {
          "internalType": "address",
          "name": "token",
          "type": "address"
        }
      ],
      "name": "SafeERC20FailedOperation",
      "type": "error"
    },
    {
      "anonymous": false,
      "inputs": [
        {
          "indexed": true,
          "internalType": "address",
          "name": "user",
          "type": "address"
        }
      ],
      "name": "ApiAccessGranted",
      "type": "event"
    },
    {
      "anonymous": false,
      "inputs": [
        {
          "indexed": true,
          "internalType": "address",
          "name": "user",
          "type": "address"
        }
      ],
      "name": "ApiAccessRevoked",
      "type": "event"
    },
    {
      "anonymous": false,
      "inputs": [
        {
          "indexed": true,
          "internalType": "address",
          "name": "previousOwner",
          "type": "address"
        },
        {
          "indexed": true,
          "internalType": "address",
          "name": "newOwner",
          "type": "address"
        }
      ],
      "name": "OwnershipTransferred",
      "type": "event"
    },
    {
      "anonymous": false,
      "inputs": [
        {
          "indexed": true,
          "internalType": "address",
          "name": "user",
          "type": "address"
        },
        {
          "indexed": true,
          "internalType": "uint256",
          "name": "planId",
          "type": "uint256"
        },
        {
          "indexed": false,
          "internalType": "uint256",
          "name": "amount",
          "type": "uint256"
        },
        {
          "indexed": false,
          "internalType": "uint256",
          "name": "nextPayment",
          "type": "uint256"
        }
      ],
      "name": "PaymentReceived",
      "type": "event"
    },
    {
      "anonymous": false,
      "inputs": [
        {
          "indexed": true,
          "internalType": "uint256",
          "name": "planId",
          "type": "uint256"
        },
        {
          "indexed": false,
          "internalType": "string",
          "name": "name",
          "type": "string"
        },
        {
          "indexed": false,
          "internalType": "address",
          "name": "token",
          "type": "address"
        },
        {
          "indexed": false,
          "internalType": "uint256",
          "name": "price",
          "type": "uint256"
        },
        {
          "indexed": false,
          "internalType": "uint256",
          "name": "interval",
          "type": "uint256"
        }
      ],
      "name": "PlanCreated",
      "type": "event"
    },
    {
      "anonymous": false,
      "inputs": [
        {
          "indexed": true,
          "internalType": "address",
          "name": "user",
          "type": "address"
        },
        {
          "indexed": true,
          "internalType": "uint256",
          "name": "planId",
          "type": "uint256"
        }
      ],
      "name": "SubscriptionCancelled",
      "type": "event"
    },
    {
      "anonymous": false,
      "inputs": [
        {
          "indexed": true,
          "internalType": "address",
          "name": "user",
          "type": "address"
        },
        {
          "indexed": true,
          "internalType": "uint256",
          "name": "planId",
          "type": "uint256"
        },
        {
          "indexed": false,
          "internalType": "uint256",
          "name": "startTime",
          "type": "uint256"
        }
      ],
      "name": "SubscriptionStarted",
      "type": "event"
    },
    {
      "inputs": [
        {
          "internalType": "address",
          "name": "token",
          "type": "address"
        }
      ],
      "name": "addSupportedToken",
      "outputs": [],
      "stateMutability": "nonpayable",
      "type": "function"
    },
    {
      "inputs": [
        {
          "internalType": "address",
          "name": "user",
          "type": "address"
        }
      ],
      "name": "cancelSubscription",
      "outputs": [],
      "stateMutability": "nonpayable",
      "type": "function"
    },
    {
      "inputs": [
        {
          "internalType": "string",
          "name": "name",
          "type": "string"
        },
        {
          "internalType": "address",
          "name": "token",
          "type": "address"
        },
        {
          "internalType": "uint256",
          "name": "price",
          "type": "uint256"
        },
        {
          "internalType": "uint256",
          "name": "interval",
          "type": "uint256"
        },
        {
          "internalType": "uint256",
          "name": "maxSubscribers",
          "type": "uint256"
        }
      ],
      "name": "createPlan",
      "outputs": [],
      "stateMutability": "nonpayable",
      "type": "function"
    },
    {
      "inputs": [
        {
          "internalType": "uint256",
          "name": "planId",
          "type": "uint256"
        }
      ],
      "name": "getPlan",
      "outputs": [
        {
          "components": [
            {
              "internalType": "string",
              "name": "name",
              "type": "string"
            },
            {
              "internalType": "address",
              "name": "token",
              "type": "address"
            },
            {
              "internalType": "uint256",
              "name": "price",
              "type": "uint256"
            },
            {
              "internalType": "uint256",
              "name": "interval",
              "type": "uint256"
            },
            {
              "internalType": "bool",
              "name": "active",
              "type": "bool"
            },
            {
              "internalType": "uint256",
              "name": "maxSubscribers",
              "type": "uint256"
            },
            {
              "internalType": "uint256",
              "name": "currentSubscribers",
              "type": "uint256"
            }
          ],
          "internalType": "struct SimpleSubscriptionManager.SubscriptionPlan",
          "name": "",
          "type": "tuple"
        }
      ],
      "stateMutability": "view",
      "type": "function"
    },
    {
      "inputs": [
        {
          "internalType": "address",
          "name": "token",
          "type": "address"
        }
      ],
      "name": "getTokenRevenue",
      "outputs": [
        {
          "internalType": "uint256",
          "name": "",
          "type": "uint256"
        }
      ],
      "stateMutability": "view",
      "type": "function"
    },
    {
      "inputs": [
        {
          "internalType": "address",
          "name": "user",
          "type": "address"
        }
      ],
      "name": "getUserSubscription",
      "outputs": [
        {
          "components": [
            {
              "internalType": "uint256",
              "name": "planId",
              "type": "uint256"
            },
            {
              "internalType": "address",
              "name": "user",
              "type": "address"
            },
            {
              "internalType": "uint256",
              "name": "startTime",
              "type": "uint256"
            },
            {
              "internalType": "uint256",
              "name": "lastPayment",
              "type": "uint256"
            },
            {
              "internalType": "uint256",
              "name": "nextPayment",
              "type": "uint256"
            },
            {
              "internalType": "bool",
              "name": "active",
              "type": "bool"
            },
            {
              "internalType": "bool",
              "name": "apiAccess",
              "type": "bool"
            }
          ],
          "internalType": "struct SimpleSubscriptionManager.UserSubscription",
          "name": "",
          "type": "tuple"
        }
      ],
      "stateMutability": "view",
      "type": "function"
    },
    {
      "inputs": [
        {
          "internalType": "address",
          "name": "user",
          "type": "address"
        }
      ],
      "name": "hasApiAccess",
      "outputs": [
        {
          "internalType": "bool",
          "name": "",
          "type": "bool"
        }
      ],
      "stateMutability": "view",
      "type": "function"
    },
    {
      "inputs": [],
      "name": "owner",
      "outputs": [
        {
          "internalType": "address",
          "name": "",
          "type": "address"
        }
      ],
      "stateMutability": "view",
      "type": "function"
    },
    {
      "inputs": [
        {
          "internalType": "uint256",
          "name": "planId",
          "type": "uint256"
        }
      ],
      "name": "pausePlan",
      "outputs": [],
      "stateMutability": "nonpayable",
      "type": "function"
    },
    {
      "inputs": [],
      "name": "planCount",
      "outputs": [
        {
          "internalType": "uint256",
          "name": "",
          "type": "uint256"
        }
      ],
      "stateMutability": "view",
      "type": "function"
    },
    {
      "inputs": [
        {
          "internalType": "address",
          "name": "user",
          "type": "address"
        },
        {
          "internalType": "uint256",
          "name": "amount",
          "type": "uint256"
        }
      ],
      "name": "processPayment",
      "outputs": [],
      "stateMutability": "nonpayable",
      "type": "function"
    },
    {
      "inputs": [
        {
          "internalType": "address",
          "name": "token",
          "type": "address"
        }
      ],
      "name": "removeSupportedToken",
      "outputs": [],
      "stateMutability": "nonpayable",
      "type": "function"
    },
    {
      "inputs": [],
      "name": "renounceOwnership",
      "outputs": [],
      "stateMutability": "nonpayable",
      "type": "function"
    },
    {
      "inputs": [
        {
          "internalType": "uint256",
          "name": "planId",
          "type": "uint256"
        }
      ],
      "name": "resumePlan",
      "outputs": [],
      "stateMutability": "nonpayable",
      "type": "function"
    },
    {
      "inputs": [
        {
          "internalType": "address",
          "name": "user",
          "type": "address"
        },
        {
          "internalType": "uint256",
          "name": "planId",
          "type": "uint256"
        }
      ],
      "name": "startSubscription",
      "outputs": [],
      "stateMutability": "nonpayable",
      "type": "function"
    },
    {
      "inputs": [
        {
          "internalType": "uint256",
          "name": "",
          "type": "uint256"
        }
      ],
      "name": "subscriptionPlans",
      "outputs": [
        {
          "internalType": "string",
          "name": "name",
          "type": "string"
        },
        {
          "internalType": "address",
          "name": "token",
          "type": "address"
        },
        {
          "internalType": "uint256",
          "name": "price",
          "type": "uint256"
        },
        {
          "internalType": "uint256",
          "name": "interval",
          "type": "uint256"
        },
        {
          "internalType": "bool",
          "name": "active",
          "type": "bool"
        },
        {
          "internalType": "uint256",
          "name": "maxSubscribers",
          "type": "uint256"
        },
        {
          "internalType": "uint256",
          "name": "currentSubscribers",
          "type": "uint256"
        }
      ],
      "stateMutability": "view",
      "type": "function"
    },
    {
      "inputs": [
        {
          "internalType": "address",
          "name": "",
          "type": "address"
        }
      ],
      "name": "supportedTokens",
      "outputs": [
        {
          "internalType": "bool",
          "name": "",
          "type": "bool"
        }
      ],
      "stateMutability": "view",
      "type": "function"
    },
    {
      "inputs": [
        {
          "internalType": "address",
          "name": "",
          "type": "address"
        }
      ],
      "name": "tokenRevenue",
      "outputs": [
        {
          "internalType": "uint256",
          "name": "",
          "type": "uint256"
        }
      ],
      "stateMutability": "view",
      "type": "function"
    },
    {
      "inputs": [
        {
          "internalType": "address",
          "name": "newOwner",
          "type": "address"
        }
      ],
      "name": "transferOwnership",
      "outputs": [],
      "stateMutability": "nonpayable",
      "type": "function"
    },
    {
      "inputs": [
        {
          "internalType": "address",
          "name": "",
          "type": "address"
        }
      ],
      "name": "userSubscriptions",
      "outputs": [
        {
          "internalType": "uint256",
          "name": "planId",
          "type": "uint256"
        },
        {
          "internalType": "address",
          "name": "user",
          "type": "address"
        },
        {
          "internalType": "uint256",
          "name": "startTime",
          "type": "uint256"
        },
        {
          "internalType": "uint256",
          "name": "lastPayment",
          "type": "uint256"
        },
        {
          "internalType": "uint256",
          "name": "nextPayment",
          "type": "uint256"
        },
        {
          "internalType": "bool",
          "name": "active",
          "type": "bool"
        },
        {
          "internalType": "bool",
          "name": "apiAccess",
          "type": "bool"
        }
      ],
      "stateMutability": "view",
      "type": "function"
    },
    {
      "inputs": [
        {
          "internalType": "address",
          "name": "token",
          "type": "address"
        },
        {
          "internalType": "uint256",
          "name": "amount",
          "type": "uint256"
        }
      ],
      "name": "withdrawRevenue",
      "outputs": [],
      "stateMutability": "nonpayable",
      "type": "function"
    }
  ],
  "bytecode": "0x608060405234801561001057600080fd5b50338061003757604051631e4fbdf760e01b81526000600482015260240160405180910390fd5b610040816100c1565b50600180805560056020527fc3b7f0cd139ea0c62601b3c2092940c4db356c7b3846636c19ffa029c9648929805460ff19908116831790915573c2132d05d31c914a87c6611c10748aeb04b58e8f6000527f22a246fed29c12ad37f2ee6f4767aa7d4210ba940d27d5c53681f9903ebf37f280549091169091179055610111565b600080546001600160a01b038381166001600160a01b0319831681178455604051919092169283917f8be0079c531659141344cd1fd0a4f28419497f9722a3daafe3b4186f6b6457e09190a35050565b6117d0806101206000396000f3fe608060405234801561001057600080fd5b50600436106101375760003560e01c806376319190116100b8578063b35876e71161007c578063b35876e7146102ae578063c7a5a23b146102c1578063cf14b9e4146102ea578063d1e5ae2d14610384578063ebbeec0814610397578063f2fde38b1461040857600080fd5b8063763191901461024757806383589fde1461025a5780638b63c2671461026d5780638da5cb5b1461028057806393d81d581461029b57600080fd5b80633925754e116100ff5780633925754e146101d65780634ba0bd91146101f657806368c4ac26146102095780636d69fcaf1461022c578063715018a61461023f57600080fd5b80630b63fe951461013c5780631680c5cd1461015157806326cd527414610179578063284c7f3514610199578063382d39bb146101bf575b600080fd5b61014f61014a36600461132f565b61041b565b005b61016461015f366004611359565b61063c565b60405190151581526020015b60405180910390f35b61018c61018736600461137b565b61068d565b60405161017091906113da565b6101ac6101a736600461137b565b6107f4565b6040516101709796959493929190611449565b6101c860035481565b604051908152602001610170565b6101c86101e4366004611359565b60066020526000908152604090205481565b61014f61020436600461132f565b6108c6565b610164610217366004611359565b60056020526000908152604090205460ff1681565b61014f61023a366004611359565b610b5a565b61014f610b86565b61014f610255366004611359565b610b9a565b61014f61026836600461137b565b610bc3565b61014f61027b36600461132f565b610c07565b6000546040516001600160a01b039091168152602001610170565b61014f6102a9366004611359565b610cc5565b61014f6102bc36600461137b565b610e40565b6101c86102cf366004611359565b6001600160a01b031660009081526006602052604090205490565b6103436102f8366004611359565b600460208190526000918252604090912080546001820154600283015460038401549484015460059094015492946001600160a01b0390921693909260ff8082169161010090041687565b604080519788526001600160a01b0390961660208801529486019390935260608501919091526080840152151560a0830152151560c082015260e001610170565b61014f6103923660046114ac565b610e87565b6103aa6103a5366004611359565b6110a5565b6040516101709190815181526020808301516001600160a01b03169082015260408083015190820152606080830151908201526080808301519082015260a08083015115159082015260c09182015115159181019190915260e00190565b61014f610416366004611359565b61116a565b6001600160a01b038216600090815260046020526040902060050154829060ff166104835760405162461bcd60e51b8152602060048201526013602482015272155cd95c881b9bdd081cdd589cd8dc9a589959606a1b60448201526064015b60405180910390fd5b6001600160a01b03831660009081526004602090815260408083208054845260029283905292209081015484146104fc5760405162461bcd60e51b815260206004820152601860248201527f496e636f7272656374207061796d656e7420616d6f756e740000000000000000604482015260640161047a565b81600401544210156105425760405162461bcd60e51b815260206004820152600f60248201526e5061796d656e74206e6f742064756560881b604482015260640161047a565b4260038084018290558201546105579161159e565b60048301556005820154610100900460ff166105b35760058201805461ff0019166101001790556040516001600160a01b038616907f3f42358723070cc969bc418230b86a479f68c55fddfda52ce97630f0c329eabb90600090a25b60018101546001600160a01b0316600090815260066020526040812080548692906105df90849061159e565b9091555050815460048301546040516001600160a01b038816917f750e6bbedd4312ada35caa75e07fc0b85f1a6fc9c675e6962aef8469187110979161062d91898252602082015260400190565b60405180910390a35050505050565b6001600160a01b03811660009081526004602052604081206005015460ff16801561068757506001600160a01b038216600090815260046020526040902060050154610100900460ff165b92915050565b6106d86040518060e001604052806060815260200160006001600160a01b03168152602001600081526020016000815260200160001515815260200160008152602001600081525090565b60035482106106f95760405162461bcd60e51b815260040161047a906115b1565b60008281526002602052604090819020815160e08101909252805482908290610721906115d7565b80601f016020809104026020016040519081016040528092919081815260200182805461074d906115d7565b801561079a5780601f1061076f5761010080835404028352916020019161079a565b820191906000526020600020905b81548152906001019060200180831161077d57829003601f168201915b505050918352505060018201546001600160a01b031660208201526002820154604082015260038201546060820152600482015460ff1615156080820152600582015460a082015260069091015460c09091015292915050565b60026020526000908152604090208054819061080f906115d7565b80601f016020809104026020016040519081016040528092919081815260200182805461083b906115d7565b80156108885780601f1061085d57610100808354040283529160200191610888565b820191906000526020600020905b81548152906001019060200180831161086b57829003601f168201915b5050506001840154600285015460038601546004870154600588015460069098015496976001600160a01b039094169692955090935060ff16919087565b8060035481106108e85760405162461bcd60e51b815260040161047a906115b1565b60008181526002602052604090206004015460ff166109395760405162461bcd60e51b815260206004820152600d60248201526c506c616e20696e61637469766560981b604482015260640161047a565b6109416111a8565b6001600160a01b03831660009081526004602052604090206005015460ff16156109ad5760405162461bcd60e51b815260206004820152601760248201527f5573657220616c72656164792073756273637269626564000000000000000000604482015260640161047a565b60008281526002602052604090206005810154600690910154106109ff5760405162461bcd60e51b8152602060048201526009602482015268141b185b88199d5b1b60ba1b604482015260640161047a565b60006002600084815260200190815260200160002090506040518060e00160405280848152602001856001600160a01b0316815260200142815260200160008152602001826003015442610a53919061159e565b815260016020808301829052600060409384018190526001600160a01b03808a168252600480845285832087518155938701519484018054959092166001600160a01b03199095169490941790559284015160028201556060840151600382015560808401519181019190915560a08301516005909101805460c09094015115156101000261ff00199215159290921661ffff19909416939093171790915560068201805491610b0283611611565b919050555082846001600160a01b03167fa179018d712fc7cef75de6374ccf0cc721dbc8d4ed48a281ca92dde831bd41dd42604051610b4391815260200190565b60405180910390a350610b5560018055565b505050565b610b626111d2565b6001600160a01b03166000908152600560205260409020805460ff19166001179055565b610b8e6111d2565b610b9860006111ff565b565b610ba26111d2565b6001600160a01b03166000908152600560205260409020805460ff19169055565b610bcb6111d2565b6003548110610bec5760405162461bcd60e51b815260040161047a906115b1565b6000908152600260205260409020600401805460ff19169055565b610c0f6111d2565b6001600160a01b038216600090815260066020526040902054811115610c6e5760405162461bcd60e51b8152602060048201526014602482015273496e73756666696369656e7420726576656e756560601b604482015260640161047a565b610c94610c836000546001600160a01b031690565b6001600160a01b038416908361124f565b6001600160a01b03821660009081526006602052604081208054839290610cbc90849061162a565b90915550505050565b6001600160a01b038116600090815260046020526040902060050154819060ff16610d285760405162461bcd60e51b8152602060048201526013602482015272155cd95c881b9bdd081cdd589cd8dc9a589959606a1b604482015260640161047a565b336001600160a01b0383161480610d4957506000546001600160a01b031633145b610d845760405162461bcd60e51b815260206004820152600c60248201526b155b985d5d1a1bdc9a5e995960a21b604482015260640161047a565b6001600160a01b038216600090815260046020908152604080832080548452600290925282206006810180549293919291610dbe8361163d565b909155505060058201805461ffff1916905581546040516001600160a01b038616907f06aa12c0ad65927b4a753d119c26e490d3c4a4e11cb631b43131a709dc1e591790600090a36040516001600160a01b038516907f66511aca5fc2bf3687baa864508e53775d539488369d92da9333bd12f521ae3790600090a250505050565b610e486111d2565b6003548110610e695760405162461bcd60e51b815260040161047a906115b1565b6000908152600260205260409020600401805460ff19166001179055565b610e8f6111d2565b6001600160a01b03841660009081526005602052604090205460ff16610eed5760405162461bcd60e51b8152602060048201526013602482015272151bdad95b881b9bdd081cdd5c1c1bdc9d1959606a1b604482015260640161047a565b60008311610f2d5760405162461bcd60e51b815260206004820152600d60248201526c496e76616c696420707269636560981b604482015260640161047a565b60008211610f705760405162461bcd60e51b815260206004820152601060248201526f125b9d985b1a59081a5b9d195c9d985b60821b604482015260640161047a565b6040805160e0810182528681526001600160a01b038616602080830191909152818301869052606082018590526001608083015260a08201849052600060c08301819052600354815260029091529190912081518190610fd090826116a2565b5060208201518160010160006101000a8154816001600160a01b0302191690836001600160a01b03160217905550604082015181600201556060820151816003015560808201518160040160006101000a81548160ff02191690831515021790555060a0820151816005015560c082015181600601559050506003547fe1b11ebce85c5a40cfa547e46d151a8f1c249d163b9af8de22381df523d307ad868686866040516110819493929190611762565b60405180910390a26003805490600061109983611611565b91905055505050505050565b6110f26040518060e001604052806000815260200160006001600160a01b031681526020016000815260200160008152602001600081526020016000151581526020016000151581525090565b506001600160a01b03908116600090815260046020818152604092839020835160e081018552815481526001820154909516918501919091526002810154928401929092526003820154606084015281015460808301526005015460ff808216151560a084015261010090910416151560c082015290565b6111726111d2565b6001600160a01b03811661119c57604051631e4fbdf760e01b81526000600482015260240161047a565b6111a5816111ff565b50565b6002600154036111cb57604051633ee5aeb560e01b815260040160405180910390fd5b6002600155565b6000546001600160a01b03163314610b985760405163118cdaa760e01b815233600482015260240161047a565b600080546001600160a01b038381166001600160a01b0319831681178455604051919092169283917f8be0079c531659141344cd1fd0a4f28419497f9722a3daafe3b4186f6b6457e09190a35050565b604080516001600160a01b03841660248201526044808201849052825180830390910181526064909101909152602080820180516001600160e01b031663a9059cbb60e01b1781528251610b55938793909260009283929183919082885af1806112bf576040513d6000823e3d81fd5b50506000513d915081156112d75780600114156112e4565b6001600160a01b0384163b155b1561130d57604051635274afe760e01b81526001600160a01b038516600482015260240161047a565b50505050565b80356001600160a01b038116811461132a57600080fd5b919050565b6000806040838503121561134257600080fd5b61134b83611313565b946020939093013593505050565b60006020828403121561136b57600080fd5b61137482611313565b9392505050565b60006020828403121561138d57600080fd5b5035919050565b6000815180845260005b818110156113ba5760208185018101518683018201520161139e565b506000602082860101526020601f19601f83011685010191505092915050565b602081526000825160e060208401526113f7610100840182611394565b905060018060a01b03602085015116604084015260408401516060840152606084015160808401526080840151151560a084015260a084015160c084015260c084015160e08401528091505092915050565b60e08152600061145c60e083018a611394565b6001600160a01b039890981660208301525060408101959095526060850193909352901515608084015260a083015260c090910152919050565b634e487b7160e01b600052604160045260246000fd5b600080600080600060a086880312156114c457600080fd5b853567ffffffffffffffff808211156114dc57600080fd5b818801915088601f8301126114f057600080fd5b81358181111561150257611502611496565b604051601f8201601f19908116603f0116810190838211818310171561152a5761152a611496565b816040528281528b602084870101111561154357600080fd5b82602086016020830137600060208483010152809950505050505061156a60208701611313565b94979496505050506040830135926060810135926080909101359150565b634e487b7160e01b600052601160045260246000fd5b8082018082111561068757610687611588565b6020808252600c908201526b24b73b30b634b210383630b760a11b604082015260600190565b600181811c908216806115eb57607f821691505b60208210810361160b57634e487b7160e01b600052602260045260246000fd5b50919050565b60006001820161162357611623611588565b5060010190565b8181038181111561068757610687611588565b60008161164c5761164c611588565b506000190190565b601f821115610b5557600081815260208120601f850160051c8101602086101561167b5750805b601f850160051c820191505b8181101561169a57828155600101611687565b505050505050565b815167ffffffffffffffff8111156116bc576116bc611496565b6116d0816116ca84546115d7565b84611654565b602080601f83116001811461170557600084156116ed5750858301515b600019600386901b1c1916600185901b17855561169a565b600085815260208120601f198616915b8281101561173457888601518255948401946001909101908401611715565b50858210156117525787850151600019600388901b60f8161c191681555b5050505050600190811b01905550565b6080815260006117756080830187611394565b6001600160a01b0395909516602083015250604081019290925260609091015291905056fea2646970667358221220ae2650167de112dc62daea3daef16d3904d926ad481eeb1cc2098017321709da64736f6c63430008140033",
  "linkReferences": {},
  "deployedLinkReferences": {}
}