{
  "_format": "hh-sol-artifact-1",
  "contractName": "SubscriptionManager",
  "sourceName": "contracts/SubscriptionManager.sol",
  "abi": [
    {
      "inputs": [],
      "stateMutability": "nonpayable",
      "type": "constructor"
    },
    {
      "inputs": [
        {
          "internalType": "address",
          "name": "owner",
          "type": "address"
        }
      ],
      "name": "OwnableInvalidOwner",
      "type": "error"
    },
    {
      "inputs": [
        {
          "internalType": "address",
          "name": "account",
          "type": "address"
        }
      ],
      "name": "OwnableUnauthorizedAccount",
      "type": "error"
    },
    {
      "inputs": [],
      "name": "ReentrancyGuardReentrantCall",
      "type": "error"
    },
    {
      "inputs": [
        {
          "internalType": "address",
          "name": "token",
          "type": "address"
        }
      ],
      "name": "SafeERC20FailedOperation",
      "type": "error"
    },
    {
      "anonymous": false,
      "inputs": [
        {
          "indexed": true,
          "internalType": "address",
          "name": "user",
          "type": "address"
        }
      ],
      "name": "ApiAccessGranted",
      "type": "event"
    },
    {
      "anonymous": false,
      "inputs": [
        {
          "indexed": true,
          "internalType": "address",
          "name": "user",
          "type": "address"
        }
      ],
      "name": "ApiAccessRevoked",
      "type": "event"
    },
    {
      "anonymous": false,
      "inputs": [
        {
          "indexed": true,
          "internalType": "address",
          "name": "user",
          "type": "address"
        },
        {
          "indexed": false,
          "internalType": "uint256",
          "name": "amount",
          "type": "uint256"
        }
      ],
      "name": "GasSponsored",
      "type": "event"
    },
    {
      "anonymous": false,
      "inputs": [
        {
          "indexed": true,
          "internalType": "address",
          "name": "previousOwner",
          "type": "address"
        },
        {
          "indexed": true,
          "internalType": "address",
          "name": "newOwner",
          "type": "address"
        }
      ],
      "name": "OwnershipTransferred",
      "type": "event"
    },
    {
      "anonymous": false,
      "inputs": [
        {
          "indexed": true,
          "internalType": "address",
          "name": "user",
          "type": "address"
        },
        {
          "indexed": true,
          "internalType": "uint256",
          "name": "planId",
          "type": "uint256"
        },
        {
          "indexed": false,
          "internalType": "uint256",
          "name": "amount",
          "type": "uint256"
        },
        {
          "indexed": false,
          "internalType": "uint256",
          "name": "nextPayment",
          "type": "uint256"
        }
      ],
      "name": "PaymentReceived",
      "type": "event"
    },
    {
      "anonymous": false,
      "inputs": [
        {
          "indexed": true,
          "internalType": "uint256",
          "name": "planId",
          "type": "uint256"
        },
        {
          "indexed": false,
          "internalType": "string",
          "name": "name",
          "type": "string"
        },
        {
          "indexed": false,
          "internalType": "address",
          "name": "token",
          "type": "address"
        },
        {
          "indexed": false,
          "internalType": "uint256",
          "name": "price",
          "type": "uint256"
        },
        {
          "indexed": false,
          "internalType": "uint256",
          "name": "interval",
          "type": "uint256"
        }
      ],
      "name": "PlanCreated",
      "type": "event"
    },
    {
      "anonymous": false,
      "inputs": [
        {
          "indexed": true,
          "internalType": "address",
          "name": "user",
          "type": "address"
        },
        {
          "indexed": true,
          "internalType": "uint256",
          "name": "planId",
          "type": "uint256"
        }
      ],
      "name": "SubscriptionCancelled",
      "type": "event"
    },
    {
      "anonymous": false,
      "inputs": [
        {
          "indexed": true,
          "internalType": "address",
          "name": "user",
          "type": "address"
        },
        {
          "indexed": true,
          "internalType": "uint256",
          "name": "planId",
          "type": "uint256"
        },
        {
          "indexed": false,
          "internalType": "address",
          "name": "wallet",
          "type": "address"
        },
        {
          "indexed": false,
          "internalType": "bytes32",
          "name": "intentHash",
          "type": "bytes32"
        }
      ],
      "name": "SubscriptionStarted",
      "type": "event"
    },
    {
      "inputs": [
        {
          "internalType": "address",
          "name": "token",
          "type": "address"
        }
      ],
      "name": "addSupportedToken",
      "outputs": [],
      "stateMutability": "nonpayable",
      "type": "function"
    },
    {
      "inputs": [
        {
          "internalType": "address",
          "name": "user",
          "type": "address"
        }
      ],
      "name": "cancelSubscription",
      "outputs": [],
      "stateMutability": "nonpayable",
      "type": "function"
    },
    {
      "inputs": [
        {
          "internalType": "string",
          "name": "name",
          "type": "string"
        },
        {
          "internalType": "address",
          "name": "token",
          "type": "address"
        },
        {
          "internalType": "uint256",
          "name": "price",
          "type": "uint256"
        },
        {
          "internalType": "uint256",
          "name": "interval",
          "type": "uint256"
        },
        {
          "internalType": "uint256",
          "name": "maxSubscribers",
          "type": "uint256"
        }
      ],
      "name": "createPlan",
      "outputs": [],
      "stateMutability": "nonpayable",
      "type": "function"
    },
    {
      "inputs": [
        {
          "internalType": "uint256",
          "name": "planId",
          "type": "uint256"
        }
      ],
      "name": "getPlan",
      "outputs": [
        {
          "components": [
            {
              "internalType": "string",
              "name": "name",
              "type": "string"
            },
            {
              "internalType": "address",
              "name": "token",
              "type": "address"
            },
            {
              "internalType": "uint256",
              "name": "price",
              "type": "uint256"
            },
            {
              "internalType": "uint256",
              "name": "interval",
              "type": "uint256"
            },
            {
              "internalType": "bool",
              "name": "active",
              "type": "bool"
            },
            {
              "internalType": "uint256",
              "name": "maxSubscribers",
              "type": "uint256"
            },
            {
              "internalType": "uint256",
              "name": "currentSubscribers",
              "type": "uint256"
            }
          ],
          "internalType": "struct SubscriptionManager.SubscriptionPlan",
          "name": "",
          "type": "tuple"
        }
      ],
      "stateMutability": "view",
      "type": "function"
    },
    {
      "inputs": [
        {
          "internalType": "address",
          "name": "user",
          "type": "address"
        }
      ],
      "name": "getSponsoredGasFees",
      "outputs": [
        {
          "internalType": "uint256",
          "name": "",
          "type": "uint256"
        }
      ],
      "stateMutability": "view",
      "type": "function"
    },
    {
      "inputs": [
        {
          "internalType": "address",
          "name": "token",
          "type": "address"
        }
      ],
      "name": "getTokenRevenue",
      "outputs": [
        {
          "internalType": "uint256",
          "name": "",
          "type": "uint256"
        }
      ],
      "stateMutability": "view",
      "type": "function"
    },
    {
      "inputs": [
        {
          "internalType": "address",
          "name": "user",
          "type": "address"
        }
      ],
      "name": "getUserSubscription",
      "outputs": [
        {
          "components": [
            {
              "internalType": "uint256",
              "name": "planId",
              "type": "uint256"
            },
            {
              "internalType": "address",
              "name": "wallet",
              "type": "address"
            },
            {
              "internalType": "uint256",
              "name": "startTime",
              "type": "uint256"
            },
            {
              "internalType": "uint256",
              "name": "lastPayment",
              "type": "uint256"
            },
            {
              "internalType": "uint256",
              "name": "nextPayment",
              "type": "uint256"
            },
            {
              "internalType": "bool",
              "name": "active",
              "type": "bool"
            },
            {
              "internalType": "bool",
              "name": "apiAccess",
              "type": "bool"
            },
            {
              "internalType": "bytes32",
              "name": "intentHash",
              "type": "bytes32"
            }
          ],
          "internalType": "struct SubscriptionManager.UserSubscription",
          "name": "",
          "type": "tuple"
        }
      ],
      "stateMutability": "view",
      "type": "function"
    },
    {
      "inputs": [
        {
          "internalType": "address",
          "name": "user",
          "type": "address"
        }
      ],
      "name": "hasApiAccess",
      "outputs": [
        {
          "internalType": "bool",
          "name": "",
          "type": "bool"
        }
      ],
      "stateMutability": "view",
      "type": "function"
    },
    {
      "inputs": [],
      "name": "owner",
      "outputs": [
        {
          "internalType": "address",
          "name": "",
          "type": "address"
        }
      ],
      "stateMutability": "view",
      "type": "function"
    },
    {
      "inputs": [
        {
          "internalType": "uint256",
          "name": "planId",
          "type": "uint256"
        }
      ],
      "name": "pausePlan",
      "outputs": [],
      "stateMutability": "nonpayable",
      "type": "function"
    },
    {
      "inputs": [],
      "name": "planCount",
      "outputs": [
        {
          "internalType": "uint256",
          "name": "",
          "type": "uint256"
        }
      ],
      "stateMutability": "view",
      "type": "function"
    },
    {
      "inputs": [
        {
          "internalType": "address",
          "name": "user",
          "type": "address"
        },
        {
          "internalType": "uint256",
          "name": "amount",
          "type": "uint256"
        }
      ],
      "name": "processPayment",
      "outputs": [],
      "stateMutability": "nonpayable",
      "type": "function"
    },
    {
      "inputs": [
        {
          "internalType": "address",
          "name": "token",
          "type": "address"
        }
      ],
      "name": "removeSupportedToken",
      "outputs": [],
      "stateMutability": "nonpayable",
      "type": "function"
    },
    {
      "inputs": [],
      "name": "renounceOwnership",
      "outputs": [],
      "stateMutability": "nonpayable",
      "type": "function"
    },
    {
      "inputs": [
        {
          "internalType": "uint256",
          "name": "planId",
          "type": "uint256"
        }
      ],
      "name": "resumePlan",
      "outputs": [],
      "stateMutability": "nonpayable",
      "type": "function"
    },
    {
      "inputs": [
        {
          "internalType": "address",
          "name": "user",
          "type": "address"
        },
        {
          "internalType": "uint256",
          "name": "amount",
          "type": "uint256"
        }
      ],
      "name": "sponsorGasFees",
      "outputs": [],
      "stateMutability": "nonpayable",
      "type": "function"
    },
    {
      "inputs": [
        {
          "internalType": "address",
          "name": "",
          "type": "address"
        }
      ],
      "name": "sponsoredGasFees",
      "outputs": [
        {
          "internalType": "uint256",
          "name": "",
          "type": "uint256"
        }
      ],
      "stateMutability": "view",
      "type": "function"
    },
    {
      "inputs": [
        {
          "internalType": "address",
          "name": "user",
          "type": "address"
        },
        {
          "internalType": "uint256",
          "name": "planId",
          "type": "uint256"
        },
        {
          "internalType": "address",
          "name": "wallet",
          "type": "address"
        },
        {
          "internalType": "bytes32",
          "name": "intentHash",
          "type": "bytes32"
        }
      ],
      "name": "startSubscription",
      "outputs": [],
      "stateMutability": "nonpayable",
      "type": "function"
    },
    {
      "inputs": [
        {
          "internalType": "uint256",
          "name": "",
          "type": "uint256"
        }
      ],
      "name": "subscriptionPlans",
      "outputs": [
        {
          "internalType": "string",
          "name": "name",
          "type": "string"
        },
        {
          "internalType": "address",
          "name": "token",
          "type": "address"
        },
        {
          "internalType": "uint256",
          "name": "price",
          "type": "uint256"
        },
        {
          "internalType": "uint256",
          "name": "interval",
          "type": "uint256"
        },
        {
          "internalType": "bool",
          "name": "active",
          "type": "bool"
        },
        {
          "internalType": "uint256",
          "name": "maxSubscribers",
          "type": "uint256"
        },
        {
          "internalType": "uint256",
          "name": "currentSubscribers",
          "type": "uint256"
        }
      ],
      "stateMutability": "view",
      "type": "function"
    },
    {
      "inputs": [
        {
          "internalType": "address",
          "name": "",
          "type": "address"
        }
      ],
      "name": "supportedTokens",
      "outputs": [
        {
          "internalType": "bool",
          "name": "",
          "type": "bool"
        }
      ],
      "stateMutability": "view",
      "type": "function"
    },
    {
      "inputs": [
        {
          "internalType": "address",
          "name": "",
          "type": "address"
        }
      ],
      "name": "tokenRevenue",
      "outputs": [
        {
          "internalType": "uint256",
          "name": "",
          "type": "uint256"
        }
      ],
      "stateMutability": "view",
      "type": "function"
    },
    {
      "inputs": [
        {
          "internalType": "address",
          "name": "newOwner",
          "type": "address"
        }
      ],
      "name": "transferOwnership",
      "outputs": [],
      "stateMutability": "nonpayable",
      "type": "function"
    },
    {
      "inputs": [
        {
          "internalType": "address",
          "name": "",
          "type": "address"
        }
      ],
      "name": "userSubscriptions",
      "outputs": [
        {
          "internalType": "uint256",
          "name": "planId",
          "type": "uint256"
        },
        {
          "internalType": "address",
          "name": "wallet",
          "type": "address"
        },
        {
          "internalType": "uint256",
          "name": "startTime",
          "type": "uint256"
        },
        {
          "internalType": "uint256",
          "name": "lastPayment",
          "type": "uint256"
        },
        {
          "internalType": "uint256",
          "name": "nextPayment",
          "type": "uint256"
        },
        {
          "internalType": "bool",
          "name": "active",
          "type": "bool"
        },
        {
          "internalType": "bool",
          "name": "apiAccess",
          "type": "bool"
        },
        {
          "internalType": "bytes32",
          "name": "intentHash",
          "type": "bytes32"
        }
      ],
      "stateMutability": "view",
      "type": "function"
    },
    {
      "inputs": [
        {
          "internalType": "address",
          "name": "token",
          "type": "address"
        },
        {
          "internalType": "uint256",
          "name": "amount",
          "type": "uint256"
        }
      ],
      "name": "withdrawRevenue",
      "outputs": [],
      "stateMutability": "nonpayable",
      "type": "function"
    }
  ],
  "bytecode": "0x608060405234801561001057600080fd5b50338061003757604051631e4fbdf760e01b81526000600482015260240160405180910390fd5b610040816100c1565b50600180805560056020527fc3b7f0cd139ea0c62601b3c2092940c4db356c7b3846636c19ffa029c9648929805460ff19908116831790915573c2132d05d31c914a87c6611c10748aeb04b58e8f6000527f22a246fed29c12ad37f2ee6f4767aa7d4210ba940d27d5c53681f9903ebf37f280549091169091179055610111565b600080546001600160a01b038381166001600160a01b0319831681178455604051919092169283917f8be0079c531659141344cd1fd0a4f28419497f9722a3daafe3b4186f6b6457e09190a35050565b611b36806101206000396000f3fe608060405234801561001057600080fd5b50600436106101585760003560e01c8063715018a6116100c3578063b35876e71161007c578063b35876e71461032b578063c7a5a23b1461033e578063cf14b9e414610367578063d1e5ae2d14610410578063ebbeec0814610423578063f2fde38b1461055f57600080fd5b8063715018a6146102bc57806376319190146102c457806383589fde146102d75780638b63c267146102ea5780638da5cb5b146102fd57806393d81d581461031857600080fd5b8063382d39bb11610115578063382d39bb1461022a5780633925754e1461023357806349e55fb114610253578063609d45121461027357806368c4ac26146102865780636d69fcaf146102a957600080fd5b80630b63fe951461015d5780631054882d146101725780631680c5cd146101ae57806326cd5274146101d1578063276f60d4146101f1578063284c7f3514610204575b600080fd5b61017061016b366004611624565b610572565b005b61019b61018036600461164e565b6001600160a01b031660009081526007602052604090205490565b6040519081526020015b60405180910390f35b6101c16101bc36600461164e565b6107bc565b60405190151581526020016101a5565b6101e46101df366004611670565b61080d565b6040516101a591906116cf565b6101706101ff366004611624565b610974565b610217610212366004611670565b610ad4565b6040516101a5979695949392919061173e565b61019b60035481565b61019b61024136600461164e565b60066020526000908152604090205481565b61019b61026136600461164e565b60076020526000908152604090205481565b61017061028136600461178b565b610ba6565b6101c161029436600461164e565b60056020526000908152604090205460ff1681565b6101706102b736600461164e565b610ece565b610170610efa565b6101706102d236600461164e565b610f0e565b6101706102e5366004611670565b610f37565b6101706102f8366004611624565b610f7b565b6000546040516001600160a01b0390911681526020016101a5565b61017061032636600461164e565b611039565b610170610339366004611670565b6111f0565b61019b61034c36600461164e565b6001600160a01b031660009081526006602052604090205490565b6103c961037536600461164e565b6004602081905260009182526040909120805460018201546002830154600384015494840154600585015460069095015493956001600160a01b03909316949193909160ff80821692610100909204169088565b604080519889526001600160a01b0390971660208901529587019490945260608601929092526080850152151560a0840152151560c083015260e0820152610100016101a5565b61017061041e3660046117e5565b611237565b6104f661043136600461164e565b6040805161010081018252600080825260208201819052918101829052606081018290526080810182905260a0810182905260c0810182905260e0810191909152506001600160a01b03908116600090815260046020818152604092839020835161010080820186528254825260018301549096169281019290925260028101549382019390935260038301546060820152908201546080820152600582015460ff808216151560a0840152939004909216151560c08301526006015460e082015290565b6040516101a59190815181526020808301516001600160a01b03169082015260408083015190820152606080830151908201526080808301519082015260a08083015115159082015260c08083015115159082015260e091820151918101919091526101000190565b61017061056d36600461164e565b611455565b6001600160a01b038216600090815260046020526040902060050154829060ff166105b85760405162461bcd60e51b81526004016105af906118c1565b60405180910390fd5b6001600160a01b0383811660009081526004602090815260408083208054845260029092529091206001820154919290911633146106295760405162461bcd60e51b815260206004820152600e60248201526d125b9d985b1a59081dd85b1b195d60921b60448201526064016105af565b8060020154841461067c5760405162461bcd60e51b815260206004820152601860248201527f496e636f7272656374207061796d656e7420616d6f756e74000000000000000060448201526064016105af565b81600401544210156106c25760405162461bcd60e51b815260206004820152600f60248201526e5061796d656e74206e6f742064756560881b60448201526064016105af565b4260038084018290558201546106d791611904565b60048301556005820154610100900460ff166107335760058201805461ff0019166101001790556040516001600160a01b038616907f3f42358723070cc969bc418230b86a479f68c55fddfda52ce97630f0c329eabb90600090a25b60018101546001600160a01b03166000908152600660205260408120805486929061075f908490611904565b9091555050815460048301546040516001600160a01b038816917f750e6bbedd4312ada35caa75e07fc0b85f1a6fc9c675e6962aef846918711097916107ad91898252602082015260400190565b60405180910390a35050505050565b6001600160a01b03811660009081526004602052604081206005015460ff16801561080757506001600160a01b038216600090815260046020526040902060050154610100900460ff165b92915050565b6108586040518060e001604052806060815260200160006001600160a01b03168152602001600081526020016000815260200160001515815260200160008152602001600081525090565b60035482106108795760405162461bcd60e51b81526004016105af90611917565b60008281526002602052604090819020815160e081019092528054829082906108a19061193d565b80601f01602080910402602001604051908101604052809291908181526020018280546108cd9061193d565b801561091a5780601f106108ef5761010080835404028352916020019161091a565b820191906000526020600020905b8154815290600101906020018083116108fd57829003601f168201915b505050918352505060018201546001600160a01b031660208201526002820154604082015260038201546060820152600482015460ff1615156080820152600582015460a082015260069091015460c09091015292915050565b61097c611493565b6001600160a01b03821660009081526004602052604090206005015460ff166109b75760405162461bcd60e51b81526004016105af906118c1565b6001600160a01b038281166000908152600460205260408082206001015490519192169083908381818185875af1925050503d8060008114610a15576040519150601f19603f3d011682016040523d82523d6000602084013e610a1a565b606091505b5050905080610a645760405162461bcd60e51b815260206004820152601660248201527511d85cc81cdc1bdb9cdbdc9cda1a5c0819985a5b195960521b60448201526064016105af565b6001600160a01b03831660009081526007602052604081208054849290610a8c908490611904565b90915550506040518281526001600160a01b038416907f2f5b7da0b8502c9a04f1c60a92a12cc859cb3cefb8951253e2f1c0df6c65d28d9060200160405180910390a2505050565b600260205260009081526040902080548190610aef9061193d565b80601f0160208091040260200160405190810160405280929190818152602001828054610b1b9061193d565b8015610b685780601f10610b3d57610100808354040283529160200191610b68565b820191906000526020600020905b815481529060010190602001808311610b4b57829003601f168201915b5050506001840154600285015460038601546004870154600588015460069098015496976001600160a01b039094169692955090935060ff16919087565b826003548110610bc85760405162461bcd60e51b81526004016105af90611917565b60008181526002602052604090206004015460ff16610c195760405162461bcd60e51b815260206004820152600d60248201526c506c616e20696e61637469766560981b60448201526064016105af565b610c216114c0565b6001600160a01b03851660009081526004602052604090206005015460ff1615610c8d5760405162461bcd60e51b815260206004820152601760248201527f5573657220616c7265616479207375627363726962656400000000000000000060448201526064016105af565b6000848152600260205260409020600581015460069091015410610cdf5760405162461bcd60e51b8152602060048201526009602482015268141b185b88199d5b1b60ba1b60448201526064016105af565b6000600260008681526020019081526020016000209050604051806101000160405280868152602001856001600160a01b0316815260200142815260200160008152602001826003015442610d349190611904565b8152600160208083018290526000604080850182905260609485018990526001600160a01b03808d168352600480855282842088518155948801519585018054969092166001600160a01b0319909616959095179055850151600283015592840151600382015560808401519181019190915560a083015160058201805460c086015115156101000261ff00199315159390931661ffff199091161791909117905560e090920151600692830155908201805491610df183611977565b9091555050600181015460028201546003830154604051631a4914af60e11b81526001600160a01b039384166004820152602481019290925260448201526064810185905290851690633492295e90608401600060405180830381600087803b158015610e5d57600080fd5b505af1158015610e71573d6000803e3d6000fd5b5050604080516001600160a01b038881168252602082018890528994508a1692507fe0e67ef7cf50e7978de20d3793520936079ff4c444bfab682b2b8c31a6904b18910160405180910390a350610ec760018055565b5050505050565b610ed6611493565b6001600160a01b03166000908152600560205260409020805460ff19166001179055565b610f02611493565b610f0c60006114ea565b565b610f16611493565b6001600160a01b03166000908152600560205260409020805460ff19169055565b610f3f611493565b6003548110610f605760405162461bcd60e51b81526004016105af90611917565b6000908152600260205260409020600401805460ff19169055565b610f83611493565b6001600160a01b038216600090815260066020526040902054811115610fe25760405162461bcd60e51b8152602060048201526014602482015273496e73756666696369656e7420726576656e756560601b60448201526064016105af565b611008610ff76000546001600160a01b031690565b6001600160a01b038416908361153a565b6001600160a01b03821660009081526006602052604081208054839290611030908490611990565b90915550505050565b6001600160a01b038116600090815260046020526040902060050154819060ff166110765760405162461bcd60e51b81526004016105af906118c1565b336001600160a01b038316148061109757506000546001600160a01b031633145b6110d25760405162461bcd60e51b815260206004820152600c60248201526b155b985d5d1a1bdc9a5e995960a21b60448201526064016105af565b6001600160a01b03821660009081526004602090815260408083208054845260029092528220600681018054929391929161110c836119a3565b909155505060058201805461ffff1916905560018201546040805163024e9edb60e41b815290516001600160a01b03909216916324e9edb09160048082019260009290919082900301818387803b15801561116657600080fd5b505af115801561117a573d6000803e3d6000fd5b505083546040519092506001600160a01b03871691507f06aa12c0ad65927b4a753d119c26e490d3c4a4e11cb631b43131a709dc1e591790600090a36040516001600160a01b038516907f66511aca5fc2bf3687baa864508e53775d539488369d92da9333bd12f521ae3790600090a250505050565b6111f8611493565b60035481106112195760405162461bcd60e51b81526004016105af90611917565b6000908152600260205260409020600401805460ff19166001179055565b61123f611493565b6001600160a01b03841660009081526005602052604090205460ff1661129d5760405162461bcd60e51b8152602060048201526013602482015272151bdad95b881b9bdd081cdd5c1c1bdc9d1959606a1b60448201526064016105af565b600083116112dd5760405162461bcd60e51b815260206004820152600d60248201526c496e76616c696420707269636560981b60448201526064016105af565b600082116113205760405162461bcd60e51b815260206004820152601060248201526f125b9d985b1a59081a5b9d195c9d985b60821b60448201526064016105af565b6040805160e0810182528681526001600160a01b038616602080830191909152818301869052606082018590526001608083015260a08201849052600060c083018190526003548152600290915291909120815181906113809082611a08565b5060208201518160010160006101000a8154816001600160a01b0302191690836001600160a01b03160217905550604082015181600201556060820151816003015560808201518160040160006101000a81548160ff02191690831515021790555060a0820151816005015560c082015181600601559050506003547fe1b11ebce85c5a40cfa547e46d151a8f1c249d163b9af8de22381df523d307ad868686866040516114319493929190611ac8565b60405180910390a26003805490600061144983611977565b91905055505050505050565b61145d611493565b6001600160a01b03811661148757604051631e4fbdf760e01b8152600060048201526024016105af565b611490816114ea565b50565b6000546001600160a01b03163314610f0c5760405163118cdaa760e01b81523360048201526024016105af565b6002600154036114e357604051633ee5aeb560e01b815260040160405180910390fd5b6002600155565b600080546001600160a01b038381166001600160a01b0319831681178455604051919092169283917f8be0079c531659141344cd1fd0a4f28419497f9722a3daafe3b4186f6b6457e09190a35050565b604080516001600160a01b038416602482015260448082018490528251808303909101815260649091019091526020810180516001600160e01b031663a9059cbb60e01b17905261158c908490611591565b505050565b600080602060008451602086016000885af1806115b4576040513d6000823e3d81fd5b50506000513d915081156115cc5780600114156115d9565b6001600160a01b0384163b155b1561160257604051635274afe760e01b81526001600160a01b03851660048201526024016105af565b50505050565b80356001600160a01b038116811461161f57600080fd5b919050565b6000806040838503121561163757600080fd5b61164083611608565b946020939093013593505050565b60006020828403121561166057600080fd5b61166982611608565b9392505050565b60006020828403121561168257600080fd5b5035919050565b6000815180845260005b818110156116af57602081850181015186830182015201611693565b506000602082860101526020601f19601f83011685010191505092915050565b602081526000825160e060208401526116ec610100840182611689565b905060018060a01b03602085015116604084015260408401516060840152606084015160808401526080840151151560a084015260a084015160c084015260c084015160e08401528091505092915050565b60e08152600061175160e083018a611689565b6001600160a01b039890981660208301525060408101959095526060850193909352901515608084015260a083015260c090910152919050565b600080600080608085870312156117a157600080fd5b6117aa85611608565b9350602085013592506117bf60408601611608565b9396929550929360600135925050565b634e487b7160e01b600052604160045260246000fd5b600080600080600060a086880312156117fd57600080fd5b853567ffffffffffffffff8082111561181557600080fd5b818801915088601f83011261182957600080fd5b81358181111561183b5761183b6117cf565b604051601f8201601f19908116603f01168101908382118183101715611863576118636117cf565b816040528281528b602084870101111561187c57600080fd5b8260208601602083013760006020848301015280995050505050506118a360208701611608565b94979496505050506040830135926060810135926080909101359150565b602080825260139082015272155cd95c881b9bdd081cdd589cd8dc9a589959606a1b604082015260600190565b634e487b7160e01b600052601160045260246000fd5b80820180821115610807576108076118ee565b6020808252600c908201526b24b73b30b634b210383630b760a11b604082015260600190565b600181811c9082168061195157607f821691505b60208210810361197157634e487b7160e01b600052602260045260246000fd5b50919050565b600060018201611989576119896118ee565b5060010190565b81810381811115610807576108076118ee565b6000816119b2576119b26118ee565b506000190190565b601f82111561158c57600081815260208120601f850160051c810160208610156119e15750805b601f850160051c820191505b81811015611a00578281556001016119ed565b505050505050565b815167ffffffffffffffff811115611a2257611a226117cf565b611a3681611a30845461193d565b846119ba565b602080601f831160018114611a6b5760008415611a535750858301515b600019600386901b1c1916600185901b178555611a00565b600085815260208120601f198616915b82811015611a9a57888601518255948401946001909101908401611a7b565b5085821015611ab85787850151600019600388901b60f8161c191681555b5050505050600190811b01905550565b608081526000611adb6080830187611689565b6001600160a01b0395909516602083015250604081019290925260609091015291905056fea2646970667358221220caf22be307da5e4e0e5997474e218427ff3ac9d01fafc28ea64a283df968a5be64736f6c63430008140033",
  "linkReferences": {},
  "deployedLinkReferences": {}
}