{
  "_format": "hh-sol-artifact-1",
  "contractName": "GasOptimizer",
  "sourceName": "contracts/GasOptimizer.sol",
  "abi": [
    {
      "inputs": [],
      "stateMutability": "nonpayable",
      "type": "constructor"
    },
    {
      "inputs": [
        {
          "internalType": "address",
          "name": "owner",
          "type": "address"
        }
      ],
      "name": "OwnableInvalidOwner",
      "type": "error"
    },
    {
      "inputs": [
        {
          "internalType": "address",
          "name": "account",
          "type": "address"
        }
      ],
      "name": "OwnableUnauthorizedAccount",
      "type": "error"
    },
    {
      "inputs": [],
      "name": "ReentrancyGuardReentrantCall",
      "type": "error"
    },
    {
      "anonymous": false,
      "inputs": [
        {
          "indexed": false,
          "internalType": "uint256",
          "name": "gasPrice",
          "type": "uint256"
        },
        {
          "indexed": false,
          "internalType": "uint256",
          "name": "timestamp",
          "type": "uint256"
        }
      ],
      "name": "GasPriceSnapshotAdded",
      "type": "event"
    },
    {
      "anonymous": false,
      "inputs": [
        {
          "indexed": true,
          "internalType": "address",
          "name": "user",
          "type": "address"
        }
      ],
      "name": "OptimizationCancelled",
      "type": "event"
    },
    {
      "anonymous": false,
      "inputs": [
        {
          "indexed": true,
          "internalType": "address",
          "name": "user",
          "type": "address"
        },
        {
          "indexed": false,
          "internalType": "uint256",
          "name": "gasPrice",
          "type": "uint256"
        },
        {
          "indexed": false,
          "internalType": "uint256",
          "name": "gasSaved",
          "type": "uint256"
        },
        {
          "indexed": false,
          "internalType": "uint256",
          "name": "timestamp",
          "type": "uint256"
        }
      ],
      "name": "OptimizationExecuted",
      "type": "event"
    },
    {
      "anonymous": false,
      "inputs": [
        {
          "indexed": true,
          "internalType": "address",
          "name": "user",
          "type": "address"
        },
        {
          "indexed": true,
          "internalType": "address",
          "name": "wallet",
          "type": "address"
        },
        {
          "indexed": false,
          "internalType": "uint256",
          "name": "planId",
          "type": "uint256"
        },
        {
          "indexed": false,
          "internalType": "uint256",
          "name": "targetExecutionTime",
          "type": "uint256"
        }
      ],
      "name": "OptimizationStarted",
      "type": "event"
    },
    {
      "anonymous": false,
      "inputs": [
        {
          "indexed": true,
          "internalType": "address",
          "name": "previousOwner",
          "type": "address"
        },
        {
          "indexed": true,
          "internalType": "address",
          "name": "newOwner",
          "type": "address"
        }
      ],
      "name": "OwnershipTransferred",
      "type": "event"
    },
    {
      "inputs": [],
      "name": "MAX_HISTORY_SIZE",
      "outputs": [
        {
          "internalType": "uint256",
          "name": "",
          "type": "uint256"
        }
      ],
      "stateMutability": "view",
      "type": "function"
    },
    {
      "inputs": [
        {
          "internalType": "uint256",
          "name": "maxGasPrice",
          "type": "uint256"
        },
        {
          "internalType": "uint256",
          "name": "currentGasPrice",
          "type": "uint256"
        }
      ],
      "name": "calculateGasSavings",
      "outputs": [
        {
          "internalType": "uint256",
          "name": "",
          "type": "uint256"
        }
      ],
      "stateMutability": "pure",
      "type": "function"
    },
    {
      "inputs": [
        {
          "internalType": "address",
          "name": "user",
          "type": "address"
        }
      ],
      "name": "cancelOptimization",
      "outputs": [],
      "stateMutability": "nonpayable",
      "type": "function"
    },
    {
      "inputs": [
        {
          "internalType": "address",
          "name": "user",
          "type": "address"
        }
      ],
      "name": "executeOptimization",
      "outputs": [],
      "stateMutability": "nonpayable",
      "type": "function"
    },
    {
      "inputs": [
        {
          "internalType": "address",
          "name": "user",
          "type": "address"
        }
      ],
      "name": "forceExecuteOptimization",
      "outputs": [],
      "stateMutability": "nonpayable",
      "type": "function"
    },
    {
      "inputs": [
        {
          "internalType": "uint256",
          "name": "",
          "type": "uint256"
        }
      ],
      "name": "gasPriceHistory",
      "outputs": [
        {
          "internalType": "uint256",
          "name": "gasPrice",
          "type": "uint256"
        },
        {
          "internalType": "uint256",
          "name": "timestamp",
          "type": "uint256"
        },
        {
          "internalType": "uint256",
          "name": "blockNumber",
          "type": "uint256"
        }
      ],
      "stateMutability": "view",
      "type": "function"
    },
    {
      "inputs": [],
      "name": "getGasPriceHistoryLength",
      "outputs": [
        {
          "internalType": "uint256",
          "name": "",
          "type": "uint256"
        }
      ],
      "stateMutability": "view",
      "type": "function"
    },
    {
      "inputs": [],
      "name": "getGasPriceTrend",
      "outputs": [
        {
          "internalType": "string",
          "name": "",
          "type": "string"
        }
      ],
      "stateMutability": "view",
      "type": "function"
    },
    {
      "inputs": [],
      "name": "getOptimalGasPrice",
      "outputs": [
        {
          "internalType": "uint256",
          "name": "",
          "type": "uint256"
        }
      ],
      "stateMutability": "view",
      "type": "function"
    },
    {
      "inputs": [
        {
          "internalType": "address",
          "name": "user",
          "type": "address"
        }
      ],
      "name": "getOptimizationSession",
      "outputs": [
        {
          "components": [
            {
              "internalType": "address",
              "name": "user",
              "type": "address"
            },
            {
              "internalType": "address",
              "name": "wallet",
              "type": "address"
            },
            {
              "internalType": "uint256",
              "name": "planId",
              "type": "uint256"
            },
            {
              "internalType": "uint256",
              "name": "startTime",
              "type": "uint256"
            },
            {
              "internalType": "uint256",
              "name": "targetExecutionTime",
              "type": "uint256"
            },
            {
              "internalType": "bool",
              "name": "active",
              "type": "bool"
            },
            {
              "components": [
                {
                  "internalType": "uint256",
                  "name": "maxGasPrice",
                  "type": "uint256"
                },
                {
                  "internalType": "uint256",
                  "name": "targetGasPrice",
                  "type": "uint256"
                },
                {
                  "internalType": "uint256",
                  "name": "gasPriceThreshold",
                  "type": "uint256"
                },
                {
                  "internalType": "uint256",
                  "name": "maxWaitTime",
                  "type": "uint256"
                },
                {
                  "internalType": "bool",
                  "name": "autoRenewal",
                  "type": "bool"
                }
              ],
              "internalType": "struct GasOptimizer.GasOptimizationParams",
              "name": "params",
              "type": "tuple"
            }
          ],
          "internalType": "struct GasOptimizer.OptimizationSession",
          "name": "",
          "type": "tuple"
        }
      ],
      "stateMutability": "view",
      "type": "function"
    },
    {
      "inputs": [
        {
          "internalType": "uint256",
          "name": "count",
          "type": "uint256"
        }
      ],
      "name": "getRecentGasPriceHistory",
      "outputs": [
        {
          "components": [
            {
              "internalType": "uint256",
              "name": "gasPrice",
              "type": "uint256"
            },
            {
              "internalType": "uint256",
              "name": "timestamp",
              "type": "uint256"
            },
            {
              "internalType": "uint256",
              "name": "blockNumber",
              "type": "uint256"
            }
          ],
          "internalType": "struct GasOptimizer.GasPriceSnapshot[]",
          "name": "",
          "type": "tuple[]"
        }
      ],
      "stateMutability": "view",
      "type": "function"
    },
    {
      "inputs": [
        {
          "internalType": "address",
          "name": "user",
          "type": "address"
        }
      ],
      "name": "getUserOptimizationStats",
      "outputs": [
        {
          "internalType": "uint256",
          "name": "count",
          "type": "uint256"
        },
        {
          "internalType": "uint256",
          "name": "totalSaved",
          "type": "uint256"
        },
        {
          "internalType": "bool",
          "name": "hasActiveSession",
          "type": "bool"
        }
      ],
      "stateMutability": "view",
      "type": "function"
    },
    {
      "inputs": [
        {
          "internalType": "uint256",
          "name": "maxGasPrice",
          "type": "uint256"
        },
        {
          "internalType": "uint256",
          "name": "targetGasPrice",
          "type": "uint256"
        }
      ],
      "name": "isOptimalGasPrice",
      "outputs": [
        {
          "internalType": "bool",
          "name": "",
          "type": "bool"
        }
      ],
      "stateMutability": "view",
      "type": "function"
    },
    {
      "inputs": [
        {
          "internalType": "address",
          "name": "",
          "type": "address"
        }
      ],
      "name": "optimizationCount",
      "outputs": [
        {
          "internalType": "uint256",
          "name": "",
          "type": "uint256"
        }
      ],
      "stateMutability": "view",
      "type": "function"
    },
    {
      "inputs": [
        {
          "internalType": "address",
          "name": "",
          "type": "address"
        }
      ],
      "name": "optimizationSessions",
      "outputs": [
        {
          "internalType": "address",
          "name": "user",
          "type": "address"
        },
        {
          "internalType": "address",
          "name": "wallet",
          "type": "address"
        },
        {
          "internalType": "uint256",
          "name": "planId",
          "type": "uint256"
        },
        {
          "internalType": "uint256",
          "name": "startTime",
          "type": "uint256"
        },
        {
          "internalType": "uint256",
          "name": "targetExecutionTime",
          "type": "uint256"
        },
        {
          "internalType": "bool",
          "name": "active",
          "type": "bool"
        },
        {
          "components": [
            {
              "internalType": "uint256",
              "name": "maxGasPrice",
              "type": "uint256"
            },
            {
              "internalType": "uint256",
              "name": "targetGasPrice",
              "type": "uint256"
            },
            {
              "internalType": "uint256",
              "name": "gasPriceThreshold",
              "type": "uint256"
            },
            {
              "internalType": "uint256",
              "name": "maxWaitTime",
              "type": "uint256"
            },
            {
              "internalType": "bool",
              "name": "autoRenewal",
              "type": "bool"
            }
          ],
          "internalType": "struct GasOptimizer.GasOptimizationParams",
          "name": "params",
          "type": "tuple"
        }
      ],
      "stateMutability": "view",
      "type": "function"
    },
    {
      "inputs": [],
      "name": "owner",
      "outputs": [
        {
          "internalType": "address",
          "name": "",
          "type": "address"
        }
      ],
      "stateMutability": "view",
      "type": "function"
    },
    {
      "inputs": [],
      "name": "renounceOwnership",
      "outputs": [],
      "stateMutability": "nonpayable",
      "type": "function"
    },
    {
      "inputs": [
        {
          "internalType": "address",
          "name": "user",
          "type": "address"
        },
        {
          "internalType": "address",
          "name": "wallet",
          "type": "address"
        },
        {
          "internalType": "uint256",
          "name": "planId",
          "type": "uint256"
        },
        {
          "components": [
            {
              "internalType": "uint256",
              "name": "maxGasPrice",
              "type": "uint256"
            },
            {
              "internalType": "uint256",
              "name": "targetGasPrice",
              "type": "uint256"
            },
            {
              "internalType": "uint256",
              "name": "gasPriceThreshold",
              "type": "uint256"
            },
            {
              "internalType": "uint256",
              "name": "maxWaitTime",
              "type": "uint256"
            },
            {
              "internalType": "bool",
              "name": "autoRenewal",
              "type": "bool"
            }
          ],
          "internalType": "struct GasOptimizer.GasOptimizationParams",
          "name": "params",
          "type": "tuple"
        }
      ],
      "name": "startOptimization",
      "outputs": [],
      "stateMutability": "nonpayable",
      "type": "function"
    },
    {
      "inputs": [
        {
          "internalType": "address",
          "name": "",
          "type": "address"
        }
      ],
      "name": "totalGasSaved",
      "outputs": [
        {
          "internalType": "uint256",
          "name": "",
          "type": "uint256"
        }
      ],
      "stateMutability": "view",
      "type": "function"
    },
    {
      "inputs": [
        {
          "internalType": "address",
          "name": "newOwner",
          "type": "address"
        }
      ],
      "name": "transferOwnership",
      "outputs": [],
      "stateMutability": "nonpayable",
      "type": "function"
    },
    {
      "inputs": [
        {
          "internalType": "address",
          "name": "user",
          "type": "address"
        },
        {
          "components": [
            {
              "internalType": "uint256",
              "name": "maxGasPrice",
              "type": "uint256"
            },
            {
              "internalType": "uint256",
              "name": "targetGasPrice",
              "type": "uint256"
            },
            {
              "internalType": "uint256",
              "name": "gasPriceThreshold",
              "type": "uint256"
            },
            {
              "internalType": "uint256",
              "name": "maxWaitTime",
              "type": "uint256"
            },
            {
              "internalType": "bool",
              "name": "autoRenewal",
              "type": "bool"
            }
          ],
          "internalType": "struct GasOptimizer.GasOptimizationParams",
          "name": "params",
          "type": "tuple"
        }
      ],
      "name": "updateOptimizationParams",
      "outputs": [],
      "stateMutability": "nonpayable",
      "type": "function"
    }
  ],
  "bytecode": "0x608060405234801561001057600080fd5b50338061003757604051631e4fbdf760e01b81526000600482015260240160405180910390fd5b6100408161004a565b506001805561009a565b600080546001600160a01b038381166001600160a01b0319831681178455604051919092169283917f8be0079c531659141344cd1fd0a4f28419497f9722a3daafe3b4186f6b6457e09190a35050565b61199a806100a96000396000f3fe608060405234801561001057600080fd5b50600436106101375760003560e01c80638ae520d0116100b8578063c9e385761161007c578063c9e385761461034d578063ca79fd4014610360578063ea578c7c1461040d578063ea9263821461043b578063f2fde38b1461045e578063ff9f18c21461047157600080fd5b80638ae520d0146102665780638da5cb5b146102865780639bea3371146102a1578063b7550b591461033c578063c10662511461034457600080fd5b80634a520077116100ff5780634a520077146102035780636155ac4e14610223578063641d18a414610238578063715018a61461024b57806381d409531461025357600080fd5b80630e72df841461013c5780630fae2feb1461016257806327f2c62b1461018257806336216963146101975780633c165cec1461019f575b600080fd5b61014f61014a36600461159f565b610484565b6040519081526020015b60405180910390f35b61014f6101703660046115dd565b60056020526000908152604090205481565b61019561019036600461169b565b6104a8565b005b60035461014f565b6101e66101ad3660046115dd565b6001600160a01b031660009081526004602090815260408083205460058084528285205460029094529190932001549192909160ff1690565b604080519384526020840192909252151590820152606001610159565b61014f6102113660046115dd565b60046020526000908152604090205481565b61022b610635565b60405161015991906116cf565b61019561024636600461171d565b61078d565b610195610b2d565b6101956102613660046115dd565b610b41565b61027961027436600461176c565b610c27565b6040516101599190611785565b6000546040516001600160a01b039091168152602001610159565b6102b46102af3660046115dd565b610d5b565b6040805182516001600160a01b039081168252602080850151909116818301528383015182840152606080850151818401526080808601518185015260a08087015115159085015260c0958601518051968501969096529185015160e08401529284015161010083015291830151610120820152910151151561014082015261016001610159565b61014f610e1d565b61014f6103e881565b61019561035b3660046115dd565b610ebd565b6103fa61036e3660046115dd565b6002602081815260009283526040928390208054600182015493820154600383015460048401546005850154885160a081018a526006870154815260078701549781019790975260088601549887019890985260098501546060870152600a9094015460ff908116151560808701526001600160a01b0393841697969093169591949093929091169087565b60405161015997969594939291906117de565b61042061041b36600461176c565b610ff2565b60408051938452602084019290925290820152606001610159565b61044e61044936600461159f565b611025565b6040519015158152602001610159565b61019561046c3660046115dd565b611040565b61019561047f3660046115dd565b61107e565b6000828210610495575060006104a2565b61049f8284611870565b90505b92915050565b6104b06112b6565b6001600160a01b038216600090815260026020526040902060050154829060ff166104f65760405162461bcd60e51b81526004016104ed90611883565b60405180910390fd5b815161053c5760405162461bcd60e51b8152602060048201526015602482015274496e76616c6964206d61782067617320707269636560581b60448201526064016104ed565b600082602001511161058b5760405162461bcd60e51b8152602060048201526018602482015277496e76616c6964207461726765742067617320707269636560401b60448201526064016104ed565b60008260600151116105d75760405162461bcd60e51b8152602060048201526015602482015274496e76616c6964206d617820776169742074696d6560581b60448201526064016104ed565b506001600160a01b03919091166000908152600260209081526040918290208351600682015590830151600782015590820151600882015560608201516009820155608090910151600a909101805460ff1916911515919091179055565b6003546060906002111561066f5750604080518082019091526011815270696e73756666696369656e745f6461746160781b602082015290565b600380546000919061068390600190611870565b81548110610693576106936118ba565b6000918252602082206003918202015481549093506106b490600290611870565b815481106106c4576106c46118ba565b6000918252602090912060039091020154905060646106e482606e6118d0565b6106ee91906118e7565b82111561071f576040518060400160405280600a815260200169696e6372656173696e6760b01b8152509250505090565b606461072c82605a6118d0565b61073691906118e7565b821015610767576040518060400160405280600a81526020016964656372656173696e6760b01b8152509250505090565b60405180604001604052806006815260200165737461626c6560d01b8152509250505090565b6107956112b6565b61079d6112e3565b6001600160a01b03841660009081526002602052604090206005015460ff16156108095760405162461bcd60e51b815260206004820152601b60248201527f4f7074696d697a6174696f6e20616c726561647920616374697665000000000060448201526064016104ed565b805161084f5760405162461bcd60e51b8152602060048201526015602482015274496e76616c6964206d61782067617320707269636560581b60448201526064016104ed565b600081602001511161089e5760405162461bcd60e51b8152602060048201526018602482015277496e76616c6964207461726765742067617320707269636560401b60448201526064016104ed565b60008160600151116108ea5760405162461bcd60e51b8152602060048201526015602482015274496e76616c6964206d617820776169742074696d6560581b60448201526064016104ed565b6000836001600160a01b0316633f15f3376040518163ffffffff1660e01b8152600401602060405180830381865afa15801561092a573d6000803e3d6000fd5b505050506040513d601f19601f8201168201806040525081019061094e9190611909565b90506000610e1061095f8342611922565b6109699190611870565b90506040518060e00160405280876001600160a01b03168152602001866001600160a01b031681526020018581526020014281526020018281526020016001151581526020018481525060026000886001600160a01b03166001600160a01b0316815260200190815260200160002060008201518160000160006101000a8154816001600160a01b0302191690836001600160a01b0316021790555060208201518160010160006101000a8154816001600160a01b0302191690836001600160a01b0316021790555060408201518160020155606082015181600301556080820151816004015560a08201518160050160006101000a81548160ff02191690831515021790555060c0820151816006016000820151816000015560208201518160010155604082015181600201556060820151816003015560808201518160040160006101000a81548160ff0219169083151502179055505050905050846001600160a01b0316866001600160a01b03167fdd40fb047379682a2b1cda75f253cb2f377f6f010cd7582c8ab2289d4c5578af8684604051610b14929190918252602082015260400190565b60405180910390a35050610b2760018055565b50505050565b610b356112b6565b610b3f600061130d565b565b6001600160a01b038116600090815260026020526040902060050154819060ff16610b7e5760405162461bcd60e51b81526004016104ed90611883565b336001600160a01b0383161480610b9f57506000546001600160a01b031633145b610bda5760405162461bcd60e51b815260206004820152600c60248201526b155b985d5d1a1bdc9a5e995960a21b60448201526064016104ed565b6001600160a01b038216600081815260026020526040808220600501805460ff19169055517f0152b186106094cf655a9d642d4e5e2d4f54a4884ac5f105eb2897f1df4a2ce99190a25050565b60606000610c3a8360038054905061135d565b905060008167ffffffffffffffff811115610c5757610c576115f8565b604051908082528060200260200182016040528015610cac57816020015b610c9960405180606001604052806000815260200160008152602001600081525090565b815260200190600190039081610c755790505b50600354909150600090610cc1908490611870565b905060005b83811015610d51576003610cda8284611922565b81548110610cea57610cea6118ba565b90600052602060002090600302016040518060600160405290816000820154815260200160018201548152602001600282015481525050838281518110610d3357610d336118ba565b60200260200101819052508080610d4990611935565b915050610cc6565b5090949350505050565b610d6361151d565b506001600160a01b03908116600090815260026020818152604092839020835160e081018552815486168152600182015490951685830152918201548484015260038201546060808601919091526004830154608080870191909152600584015460ff908116151560a0808901919091528651908101875260068601548152600786015494810194909452600885015495840195909552600984015491830191909152600a9092015490921615159082015260c082015290565b6003546000908103610e3357506404a817c80090565b600080610e46600380549050606461135d565b600354909150600090610e5a908390611870565b90505b600354811015610eab5760038181548110610e7a57610e7a6118ba565b90600052602060002090600302016000015483610e979190611922565b925080610ea381611935565b915050610e5d565b50610eb681836118e7565b9250505090565b610ec56112b6565b6001600160a01b038116600090815260026020526040902060050154819060ff16610f025760405162461bcd60e51b81526004016104ed90611883565b6001600160a01b0380831660009081526002602052604080822060018101548251636e30798160e01b8152925191941692636e307981926004808201939182900301818387803b158015610f5557600080fd5b505af1158015610f69573d6000803e3d6000fd5b505050506001600160a01b0383166000908152600460205260408120805491610f9183611935565b909155505060058101805460ff19169055604080513a815260006020820152428183015290516001600160a01b038516917f4f3edb482574a7f4fc4d77cf4e59e40f5d07598215baf7d95638049c512dfd32919081900360600190a2505050565b6003818154811061100257600080fd5b600091825260209091206003909102018054600182015460029092015490925083565b60003a8381118015906110385750828111155b949350505050565b6110486112b6565b6001600160a01b03811661107257604051631e4fbdf760e01b8152600060048201526024016104ed565b61107b8161130d565b50565b6001600160a01b038116600090815260026020526040902060050154819060ff166110bb5760405162461bcd60e51b81526004016104ed90611883565b6110c36112e3565b6001600160a01b038216600090815260026020526040902060048101544210156111255760405162461bcd60e51b81526020600482015260136024820152724e6f742074696d6520746f206578656375746560681b60448201526064016104ed565b60068101543a908111156111705760405162461bcd60e51b815260206004820152601260248201527108ec2e640e0e4d2c6ca40e8dede40d0d2ced60731b60448201526064016104ed565b6111798161136d565b8160010160009054906101000a90046001600160a01b03166001600160a01b0316636e3079816040518163ffffffff1660e01b8152600401600060405180830381600087803b1580156111cb57600080fd5b505af11580156111df573d6000803e3d6000fd5b5050506006830154600091506111f6908390611870565b6001600160a01b038616600090815260046020526040812080549293509061121d83611935565b90915550506001600160a01b0385166000908152600560205260408120805483929061124a908490611922565b909155505060058301805460ff191690556040805183815260208101839052428183015290516001600160a01b038716917f4f3edb482574a7f4fc4d77cf4e59e40f5d07598215baf7d95638049c512dfd32919081900360600190a25050506112b260018055565b5050565b6000546001600160a01b03163314610b3f5760405163118cdaa760e01b81523360048201526024016104ed565b60026001540361130657604051633ee5aeb560e01b815260040160405180910390fd5b6002600155565b600080546001600160a01b038381166001600160a01b0319831681178455604051919092169283917f8be0079c531659141344cd1fd0a4f28419497f9722a3daafe3b4186f6b6457e09190a35050565b600082821882841002821861049f565b6040805160608101825282815242602082019081524392820192835260038054600181018255600082905292517fc2575a0e9e593c00f959f8c92f12db2869c3395a3b0502d05e2516446f71f85b9382029384015590517fc2575a0e9e593c00f959f8c92f12db2869c3395a3b0502d05e2516446f71f85c83015591517fc2575a0e9e593c00f959f8c92f12db2869c3395a3b0502d05e2516446f71f85d90910155546103e810156114e25760005b60035461142b90600190611870565b8110156114aa57600361143f826001611922565b8154811061144f5761144f6118ba565b906000526020600020906003020160038281548110611470576114706118ba565b60009182526020909120825460039092020190815560018083015490820155600291820154910155806114a281611935565b91505061141c565b5060038054806114bc576114bc61194e565b600082815260208120600360001990930192830201818155600181018290556002015590555b604080518281524260208201527f0cdd9b27ec503654e434bd6abf811b04a920327e8b50b66040e3561aec8ae344910160405180910390a150565b6040518060e0016040528060006001600160a01b0316815260200160006001600160a01b0316815260200160008152602001600081526020016000815260200160001515815260200161159a6040518060a00160405280600081526020016000815260200160008152602001600081526020016000151581525090565b905290565b600080604083850312156115b257600080fd5b50508035926020909101359150565b80356001600160a01b03811681146115d857600080fd5b919050565b6000602082840312156115ef57600080fd5b61049f826115c1565b634e487b7160e01b600052604160045260246000fd5b600060a0828403121561162057600080fd5b60405160a0810181811067ffffffffffffffff8211171561165157634e487b7160e01b600052604160045260246000fd5b8060405250809150823581526020830135602082015260408301356040820152606083013560608201526080830135801515811461168e57600080fd5b6080919091015292915050565b60008060c083850312156116ae57600080fd5b6116b7836115c1565b91506116c6846020850161160e565b90509250929050565b600060208083528351808285015260005b818110156116fc578581018301518582016040015282016116e0565b506000604082860101526040601f19601f8301168501019250505092915050565b600080600080610100858703121561173457600080fd5b61173d856115c1565b935061174b602086016115c1565b925060408501359150611761866060870161160e565b905092959194509250565b60006020828403121561177e57600080fd5b5035919050565b602080825282518282018190526000919060409081850190868401855b828110156117d157815180518552868101518786015285015185850152606090930192908501906001016117a2565b5091979650505050505050565b6001600160a01b0388811682528716602082015260408101869052606081018590526080810184905282151560a0820152610160810161184e60c0830184805182526020810151602083015260408101516040830152606081015160608301526080810151151560808301525050565b98975050505050505050565b634e487b7160e01b600052601160045260246000fd5b818103818111156104a2576104a261185a565b6020808252601e908201527f4e6f20616374697665206f7074696d697a6174696f6e2073657373696f6e0000604082015260600190565b634e487b7160e01b600052603260045260246000fd5b80820281158282048414176104a2576104a261185a565b60008261190457634e487b7160e01b600052601260045260246000fd5b500490565b60006020828403121561191b57600080fd5b5051919050565b808201808211156104a2576104a261185a565b6000600182016119475761194761185a565b5060010190565b634e487b7160e01b600052603160045260246000fdfea26469706673582212206aeecd199484d3dac09b5d4786b2c86e2a63fc770e1204597973a906d8016fd164736f6c63430008140033",
  "linkReferences": {},
  "deployedLinkReferences": {}
}