{
  "_format": "hh-sol-artifact-1",
  "contractName": "IntentManager",
  "sourceName": "contracts/IntentManager.sol",
  "abi": [
    {
      "inputs": [],
      "stateMutability": "nonpayable",
      "type": "constructor"
    },
    {
      "inputs": [],
      "name": "ECDSAInvalidSignature",
      "type": "error"
    },
    {
      "inputs": [
        {
          "internalType": "uint256",
          "name": "length",
          "type": "uint256"
        }
      ],
      "name": "ECDSAInvalidSignatureLength",
      "type": "error"
    },
    {
      "inputs": [
        {
          "internalType": "bytes32",
          "name": "s",
          "type": "bytes32"
        }
      ],
      "name": "ECDSAInvalidSignatureS",
      "type": "error"
    },
    {
      "inputs": [
        {
          "internalType": "address",
          "name": "owner",
          "type": "address"
        }
      ],
      "name": "OwnableInvalidOwner",
      "type": "error"
    },
    {
      "inputs": [
        {
          "internalType": "address",
          "name": "account",
          "type": "address"
        }
      ],
      "name": "OwnableUnauthorizedAccount",
      "type": "error"
    },
    {
      "inputs": [],
      "name": "ReentrancyGuardReentrantCall",
      "type": "error"
    },
    {
      "anonymous": false,
      "inputs": [
        {
          "indexed": true,
          "internalType": "address",
          "name": "user",
          "type": "address"
        },
        {
          "indexed": true,
          "internalType": "address",
          "name": "wallet",
          "type": "address"
        },
        {
          "indexed": true,
          "internalType": "uint256",
          "name": "planId",
          "type": "uint256"
        },
        {
          "indexed": false,
          "internalType": "bytes32",
          "name": "intentHash",
          "type": "bytes32"
        },
        {
          "indexed": false,
          "internalType": "uint256",
          "name": "amount",
          "type": "uint256"
        },
        {
          "indexed": false,
          "internalType": "uint256",
          "name": "interval",
          "type": "uint256"
        }
      ],
      "name": "IntentCreated",
      "type": "event"
    },
    {
      "anonymous": false,
      "inputs": [
        {
          "indexed": true,
          "internalType": "address",
          "name": "user",
          "type": "address"
        },
        {
          "indexed": true,
          "internalType": "bytes32",
          "name": "intentHash",
          "type": "bytes32"
        }
      ],
      "name": "IntentExpired",
      "type": "event"
    },
    {
      "anonymous": false,
      "inputs": [
        {
          "indexed": true,
          "internalType": "address",
          "name": "user",
          "type": "address"
        },
        {
          "indexed": true,
          "internalType": "bytes32",
          "name": "intentHash",
          "type": "bytes32"
        },
        {
          "indexed": false,
          "internalType": "string",
          "name": "reason",
          "type": "string"
        }
      ],
      "name": "IntentRevoked",
      "type": "event"
    },
    {
      "anonymous": false,
      "inputs": [
        {
          "indexed": true,
          "internalType": "address",
          "name": "user",
          "type": "address"
        },
        {
          "indexed": true,
          "internalType": "bytes32",
          "name": "intentHash",
          "type": "bytes32"
        },
        {
          "indexed": false,
          "internalType": "address",
          "name": "verifier",
          "type": "address"
        }
      ],
      "name": "IntentVerified",
      "type": "event"
    },
    {
      "anonymous": false,
      "inputs": [
        {
          "indexed": true,
          "internalType": "address",
          "name": "previousOwner",
          "type": "address"
        },
        {
          "indexed": true,
          "internalType": "address",
          "name": "newOwner",
          "type": "address"
        }
      ],
      "name": "OwnershipTransferred",
      "type": "event"
    },
    {
      "anonymous": false,
      "inputs": [
        {
          "indexed": false,
          "internalType": "uint256",
          "name": "newPeriod",
          "type": "uint256"
        }
      ],
      "name": "ValidityPeriodUpdated",
      "type": "event"
    },
    {
      "anonymous": false,
      "inputs": [
        {
          "indexed": false,
          "internalType": "uint256",
          "name": "newThreshold",
          "type": "uint256"
        }
      ],
      "name": "VerificationThresholdUpdated",
      "type": "event"
    },
    {
      "inputs": [
        {
          "internalType": "address[]",
          "name": "users",
          "type": "address[]"
        }
      ],
      "name": "cleanupExpiredIntents",
      "outputs": [],
      "stateMutability": "nonpayable",
      "type": "function"
    },
    {
      "inputs": [
        {
          "internalType": "address",
          "name": "user",
          "type": "address"
        },
        {
          "internalType": "address",
          "name": "wallet",
          "type": "address"
        },
        {
          "internalType": "uint256",
          "name": "planId",
          "type": "uint256"
        },
        {
          "internalType": "uint256",
          "name": "amount",
          "type": "uint256"
        },
        {
          "internalType": "uint256",
          "name": "interval",
          "type": "uint256"
        },
        {
          "internalType": "bytes32",
          "name": "intentHash",
          "type": "bytes32"
        }
      ],
      "name": "createIntent",
      "outputs": [],
      "stateMutability": "nonpayable",
      "type": "function"
    },
    {
      "inputs": [
        {
          "internalType": "address",
          "name": "user",
          "type": "address"
        }
      ],
      "name": "getIntent",
      "outputs": [
        {
          "components": [
            {
              "internalType": "address",
              "name": "user",
              "type": "address"
            },
            {
              "internalType": "address",
              "name": "wallet",
              "type": "address"
            },
            {
              "internalType": "uint256",
              "name": "planId",
              "type": "uint256"
            },
            {
              "internalType": "uint256",
              "name": "amount",
              "type": "uint256"
            },
            {
              "internalType": "uint256",
              "name": "interval",
              "type": "uint256"
            },
            {
              "internalType": "uint256",
              "name": "startTime",
              "type": "uint256"
            },
            {
              "internalType": "uint256",
              "name": "endTime",
              "type": "uint256"
            },
            {
              "internalType": "bytes32",
              "name": "intentHash",
              "type": "bytes32"
            },
            {
              "internalType": "bool",
              "name": "verified",
              "type": "bool"
            },
            {
              "internalType": "bool",
              "name": "revoked",
              "type": "bool"
            },
            {
              "internalType": "uint256",
              "name": "createdAt",
              "type": "uint256"
            }
          ],
          "internalType": "struct IntentManager.Intent",
          "name": "intent",
          "type": "tuple"
        }
      ],
      "stateMutability": "view",
      "type": "function"
    },
    {
      "inputs": [
        {
          "internalType": "address",
          "name": "user",
          "type": "address"
        }
      ],
      "name": "getIntentHash",
      "outputs": [
        {
          "internalType": "bytes32",
          "name": "intentHash",
          "type": "bytes32"
        }
      ],
      "stateMutability": "view",
      "type": "function"
    },
    {
      "inputs": [
        {
          "internalType": "address",
          "name": "user",
          "type": "address"
        }
      ],
      "name": "getIntentStatus",
      "outputs": [
        {
          "internalType": "enum IntentManager.IntentStatus",
          "name": "status",
          "type": "uint8"
        }
      ],
      "stateMutability": "view",
      "type": "function"
    },
    {
      "inputs": [
        {
          "internalType": "address",
          "name": "user",
          "type": "address"
        }
      ],
      "name": "getTimeUntilExpiry",
      "outputs": [
        {
          "internalType": "uint256",
          "name": "timeUntilExpiry",
          "type": "uint256"
        }
      ],
      "stateMutability": "view",
      "type": "function"
    },
    {
      "inputs": [
        {
          "internalType": "bytes32",
          "name": "intentHash",
          "type": "bytes32"
        }
      ],
      "name": "getUserFromIntentHash",
      "outputs": [
        {
          "internalType": "address",
          "name": "user",
          "type": "address"
        }
      ],
      "stateMutability": "view",
      "type": "function"
    },
    {
      "inputs": [
        {
          "internalType": "address",
          "name": "user",
          "type": "address"
        }
      ],
      "name": "hasValidIntent",
      "outputs": [
        {
          "internalType": "bool",
          "name": "",
          "type": "bool"
        }
      ],
      "stateMutability": "view",
      "type": "function"
    },
    {
      "inputs": [
        {
          "internalType": "bytes32",
          "name": "",
          "type": "bytes32"
        }
      ],
      "name": "intentToUser",
      "outputs": [
        {
          "internalType": "address",
          "name": "",
          "type": "address"
        }
      ],
      "stateMutability": "view",
      "type": "function"
    },
    {
      "inputs": [],
      "name": "intentValidityPeriod",
      "outputs": [
        {
          "internalType": "uint256",
          "name": "",
          "type": "uint256"
        }
      ],
      "stateMutability": "view",
      "type": "function"
    },
    {
      "inputs": [
        {
          "internalType": "address",
          "name": "user",
          "type": "address"
        }
      ],
      "name": "isIntentValid",
      "outputs": [
        {
          "internalType": "bool",
          "name": "isValid",
          "type": "bool"
        }
      ],
      "stateMutability": "view",
      "type": "function"
    },
    {
      "inputs": [],
      "name": "owner",
      "outputs": [
        {
          "internalType": "address",
          "name": "",
          "type": "address"
        }
      ],
      "stateMutability": "view",
      "type": "function"
    },
    {
      "inputs": [],
      "name": "renounceOwnership",
      "outputs": [],
      "stateMutability": "nonpayable",
      "type": "function"
    },
    {
      "inputs": [
        {
          "internalType": "address",
          "name": "user",
          "type": "address"
        },
        {
          "internalType": "string",
          "name": "reason",
          "type": "string"
        }
      ],
      "name": "revokeIntent",
      "outputs": [],
      "stateMutability": "nonpayable",
      "type": "function"
    },
    {
      "inputs": [
        {
          "internalType": "address",
          "name": "newOwner",
          "type": "address"
        }
      ],
      "name": "transferOwnership",
      "outputs": [],
      "stateMutability": "nonpayable",
      "type": "function"
    },
    {
      "inputs": [
        {
          "internalType": "uint256",
          "name": "newPeriod",
          "type": "uint256"
        }
      ],
      "name": "updateValidityPeriod",
      "outputs": [],
      "stateMutability": "nonpayable",
      "type": "function"
    },
    {
      "inputs": [
        {
          "internalType": "uint256",
          "name": "newThreshold",
          "type": "uint256"
        }
      ],
      "name": "updateVerificationThreshold",
      "outputs": [],
      "stateMutability": "nonpayable",
      "type": "function"
    },
    {
      "inputs": [
        {
          "internalType": "address",
          "name": "",
          "type": "address"
        }
      ],
      "name": "userIntents",
      "outputs": [
        {
          "internalType": "address",
          "name": "user",
          "type": "address"
        },
        {
          "internalType": "address",
          "name": "wallet",
          "type": "address"
        },
        {
          "internalType": "uint256",
          "name": "planId",
          "type": "uint256"
        },
        {
          "internalType": "uint256",
          "name": "amount",
          "type": "uint256"
        },
        {
          "internalType": "uint256",
          "name": "interval",
          "type": "uint256"
        },
        {
          "internalType": "uint256",
          "name": "startTime",
          "type": "uint256"
        },
        {
          "internalType": "uint256",
          "name": "endTime",
          "type": "uint256"
        },
        {
          "internalType": "bytes32",
          "name": "intentHash",
          "type": "bytes32"
        },
        {
          "internalType": "bool",
          "name": "verified",
          "type": "bool"
        },
        {
          "internalType": "bool",
          "name": "revoked",
          "type": "bool"
        },
        {
          "internalType": "uint256",
          "name": "createdAt",
          "type": "uint256"
        }
      ],
      "stateMutability": "view",
      "type": "function"
    },
    {
      "inputs": [],
      "name": "verificationThreshold",
      "outputs": [
        {
          "internalType": "uint256",
          "name": "",
          "type": "uint256"
        }
      ],
      "stateMutability": "view",
      "type": "function"
    },
    {
      "inputs": [
        {
          "internalType": "address",
          "name": "user",
          "type": "address"
        },
        {
          "internalType": "bytes",
          "name": "signature",
          "type": "bytes"
        }
      ],
      "name": "verifyIntent",
      "outputs": [],
      "stateMutability": "nonpayable",
      "type": "function"
    },
    {
      "inputs": [
        {
          "internalType": "address",
          "name": "user",
          "type": "address"
        },
        {
          "internalType": "bytes",
          "name": "signature",
          "type": "bytes"
        }
      ],
      "name": "verifyIntentSignature",
      "outputs": [
        {
          "internalType": "bool",
          "name": "isValid",
          "type": "bool"
        }
      ],
      "stateMutability": "view",
      "type": "function"
    }
  ],
  "bytecode": "0x6080604052600160045562093a8060055534801561001c57600080fd5b50338061004357604051631e4fbdf760e01b81526000600482015260240160405180910390fd5b61004c81610056565b50600180556100a6565b600080546001600160a01b038381166001600160a01b0319831681178455604051919092169283917f8be0079c531659141344cd1fd0a4f28419497f9722a3daafe3b4186f6b6457e09190a35050565b611b90806100b56000396000f3fe608060405234801561001057600080fd5b50600436106101375760003560e01c80636042f704116100b85780638da5cb5b1161007c5780638da5cb5b146103c6578063aa082ba1146103d7578063d2f6efb5146103ea578063d6254146146104c7578063ea4c237c146104d0578063f2fde38b146104f957600080fd5b80636042f704146103655780636edd2f6414610378578063715018a61461038b5780638403b74d1461039357806389aa56a4146103b357600080fd5b806341b2a7e6116100ff57806341b2a7e6146102bf5780634bf3bd59146102d257806358e019c51461031357806358e891a21461033f5780635e48ddcf1461035257600080fd5b806310d4383a1461013c578063167feb09146101515780631a018a071461016d5780632b9b6809146101905780632fed86ee146101a3575b600080fd5b61014f61014a366004611760565b61050c565b005b61015a60045481565b6040519081526020015b60405180910390f35b61018061017b3660046117b5565b6108c6565b6040519015158152602001610164565b61018061019e36600461185c565b6109b1565b6102b26101b13660046117b5565b6040805161016081018252600080825260208201819052918101829052606081018290526080810182905260a0810182905260c0810182905260e0810182905261010081018290526101208101829052610140810191909152506001600160a01b0390811660009081526002602081815260409283902083516101608101855281548616815260018201549095169185019190915290810154918301919091526003810154606083015260048101546080830152600581015460a0830152600681015460c0830152600781015460e0830152600881015460ff8082161515610100808601919091529091041615156101208301526009015461014082015290565b60405161016491906118be565b61014f6102cd36600461185c565b610b1f565b6102fb6102e036600461195c565b6000908152600360205260409020546001600160a01b031690565b6040516001600160a01b039091168152602001610164565b61015a6103213660046117b5565b6001600160a01b031660009081526002602052604090206007015490565b61015a61034d3660046117b5565b610dfe565b6101806103603660046117b5565b610edd565b61014f610373366004611975565b610fba565b61014f61038636600461195c565b6110a3565b61014f611128565b6103a66103a13660046117b5565b61113c565b6040516101649190611a00565b61014f6103c136600461195c565b611239565b6000546001600160a01b03166102fb565b61014f6103e536600461185c565b6112ba565b6104656103f83660046117b5565b600260208190526000918252604090912080546001820154928201546003830154600484015460058501546006860154600787015460088801546009909801546001600160a01b03978816999097169795969495939492939192909160ff8082169261010090920416908b565b604080516001600160a01b039c8d1681529b909a1660208c0152988a01979097526060890195909552608088019390935260a087019190915260c086015260e08501521515610100840152151561012083015261014082015261016001610164565b61015a60055481565b6102fb6104de36600461195c565b6003602052600090815260409020546001600160a01b031681565b61014f6105073660046117b5565b61145c565b61051461149a565b856001600160a01b0381166105445760405162461bcd60e51b815260040161053b90611a28565b60405180910390fd5b61054c6114c7565b6001600160a01b038716600090815260026020526040902060070154156105ad5760405162461bcd60e51b8152602060048201526015602482015274496e74656e7420616c72656164792065786973747360581b604482015260640161053b565b6000828152600360205260409020546001600160a01b0316156106125760405162461bcd60e51b815260206004820152601860248201527f496e74656e74206861736820616c726561647920757365640000000000000000604482015260640161053b565b600084116106535760405162461bcd60e51b815260206004820152600e60248201526d125b9d985b1a5908185b5bdd5b9d60921b604482015260640161053b565b600083116106965760405162461bcd60e51b815260206004820152601060248201526f125b9d985b1a59081a5b9d195c9d985b60821b604482015260640161053b565b60055442906000906106a89083611a6c565b90506040518061016001604052808a6001600160a01b03168152602001896001600160a01b0316815260200188815260200187815260200186815260200183815260200182815260200185815260200160001515815260200160001515815260200142815250600260008b6001600160a01b03166001600160a01b0316815260200190815260200160002060008201518160000160006101000a8154816001600160a01b0302191690836001600160a01b0316021790555060208201518160010160006101000a8154816001600160a01b0302191690836001600160a01b0316021790555060408201518160020155606082015181600301556080820151816004015560a0820151816005015560c0820151816006015560e082015181600701556101008201518160080160006101000a81548160ff0219169083151502179055506101208201518160080160016101000a81548160ff0219169083151502179055506101408201518160090155905050886003600086815260200190815260200160002060006101000a8154816001600160a01b0302191690836001600160a01b0316021790555086886001600160a01b03168a6001600160a01b03167f91d85c7357beecccb21d2678498f615d06a191606d15e10ab5189b1c3945b7f5878a8a6040516108aa939291909283526020830191909152604082015260600190565b60405180910390a450506108bd60018055565b50505050505050565b6001600160a01b03808216600090815260026020818152604080842081516101608101835281548716815260018201549096169286019290925291810154918401919091526003810154606084015260048101546080840152600581015460a0840152600681015460c0840152600781015460e08401819052600882015460ff80821615156101008088019190915290910416151561012085015260099091015461014084015290919061097d5750600092915050565b806101200151156109915750600092915050565b8060c001514211156109a65750600092915050565b610100015192915050565b6001600160a01b03808316600090815260026020818152604080842081516101608101835281548716815260018201549096169286019290925291810154918401919091526003810154606084015260048101546080840152600581015460a0840152600681015460c0840152600781015460e08401819052600882015460ff808216151561010080880191909152909104161515610120850152600990910154610140840152909190610a69576000915050610b19565b60e081015181516020808401516040808601516060870151608088015160a089015160c08a01519451600099610aa59990989097969101611a7f565b6040516020818303038152906040528051906020012090506000610af6827f19457468657265756d205369676e6564204d6573736167653a0a3332000000006000908152601c91909152603c902090565b90506000610b0482876114f1565b6001600160a01b038881169116149450505050505b92915050565b816001600160a01b038116610b465760405162461bcd60e51b815260040161053b90611a28565b610b4e6114c7565b6001600160a01b03831660009081526002602052604090206007810154610baf5760405162461bcd60e51b8152602060048201526015602482015274125b9d195b9d08191bd95cc81b9bdd08195e1a5cdd605a1b604482015260640161053b565b600881015460ff1615610c045760405162461bcd60e51b815260206004820152601760248201527f496e74656e7420616c7265616479207665726966696564000000000000000000604482015260640161053b565b6008810154610100900460ff1615610c4f5760405162461bcd60e51b815260206004820152600e60248201526d125b9d195b9d081c995d9bdad95960921b604482015260640161053b565b8060060154421115610c945760405162461bcd60e51b815260206004820152600e60248201526d125b9d195b9d08195e1c1a5c995960921b604482015260640161053b565b60078101548154600183015460028401546003850154600486015460058701546006880154604051600098610ce49890976001600160a01b03918216979116959094909390929091602001611a7f565b6040516020818303038152906040528051906020012090506000610d35827f19457468657265756d205369676e6564204d6573736167653a0a3332000000006000908152601c91909152603c902090565b90506000610d4382876114f1565b9050866001600160a01b0316816001600160a01b031614610d9a5760405162461bcd60e51b8152602060048201526011602482015270496e76616c6964207369676e617475726560781b604482015260640161053b565b60088401805460ff1916600117905560078401546040513381526001600160a01b038916907f12844976348565ada168ebdf4442239887bbc15c17fe0f5a5a45f6731328b6d19060200160405180910390a350505050610df960018055565b505050565b6001600160a01b03808216600090815260026020818152604080842081516101608101835281548716815260018201549096169286019290925291810154918401919091526003810154606084015260048101546080840152600581015460a0840152600681015460c0840152600781015460e08401819052600882015460ff8082161515610100808801919091529091041615156101208501526009909101546101408401529091901580610eb857508060c001514210155b15610ec65750600092915050565b428160c00151610ed69190611aca565b9392505050565b6001600160a01b03808216600090815260026020818152604080842081516101608101835281548716815260018201549096169286019290925291810154918401919091526003810154606084015260048101546080840152600581015460a0840152600681015460c0840152600781015460e08401819052600882015460ff80821615156101008088019190915290910416151561012085015260099091015461014084015290919015801590610f9757508061010001515b8015610fa65750806101200151155b8015610ed6575060c0015142111592915050565b610fc261149a565b60005b81811015610df9576000838383818110610fe157610fe1611add565b9050602002016020810190610ff691906117b5565b6001600160a01b0381166000908152600260205260409020600781015491925090158015906110285750806006015442115b801561103e57506008810154610100900460ff16155b1561108e5760088101805461ff00191661010017905560078101546040516001600160a01b038416907f79a70a15d9223570364ef658724c7b29f3c1632f75b4b40de030d673b9b89d7c90600090a35b5050808061109b90611af3565b915050610fc5565b6110ab61149a565b600081116110ec5760405162461bcd60e51b815260206004820152600e60248201526d125b9d985b1a59081c195c9a5bd960921b604482015260640161053b565b60058190556040518181527f1897a52e6728570be88d294775a6c4785a282e0d626bebf12757881dcc301ce1906020015b60405180910390a150565b61113061149a565b61113a600061151b565b565b6001600160a01b03808216600090815260026020818152604080842081516101608101835281548716815260018201549096169286019290925291810154918401919091526003810154606084015260048101546080840152600581015460a0840152600681015460c0840152600781015460e08401819052600882015460ff8082161515610100808801919091529091041615156101208501526009909101546101408401529091906111f35750600092915050565b806101200151156112075750600292915050565b8060c0015142111561121c5750600392915050565b806101000151156112305750600192915050565b50600092915050565b61124161149a565b600081116112855760405162461bcd60e51b8152602060048201526011602482015270125b9d985b1a59081d1a1c995cda1bdb19607a1b604482015260640161053b565b60048190556040518181527f92f96a03bef2d117f6cb166c330c75b2d08091142a78ab5d19e3bff63fa6c5b59060200161111d565b816001600160a01b0381166112e15760405162461bcd60e51b815260040161053b90611a28565b6112e96114c7565b6001600160a01b0383166000908152600260205260409020600781015461134a5760405162461bcd60e51b8152602060048201526015602482015274125b9d195b9d08191bd95cc81b9bdd08195e1a5cdd605a1b604482015260640161053b565b6008810154610100900460ff161561139d5760405162461bcd60e51b8152602060048201526016602482015275125b9d195b9d08185b1c9958591e481c995d9bdad95960521b604482015260640161053b565b336001600160a01b03851614806113be57506000546001600160a01b031633145b6113f95760405162461bcd60e51b815260206004820152600c60248201526b155b985d5d1a1bdc9a5e995960a21b604482015260640161053b565b60088101805461ff00191661010017905560078101546040516001600160a01b038616907f35d7d12237533190b0c93033c343bf38fbfbb8bf25e9b7c0dc78f7954d2d80479061144a908790611b0c565b60405180910390a350610df960018055565b61146461149a565b6001600160a01b03811661148e57604051631e4fbdf760e01b81526000600482015260240161053b565b6114978161151b565b50565b6000546001600160a01b0316331461113a5760405163118cdaa760e01b815233600482015260240161053b565b6002600154036114ea57604051633ee5aeb560e01b815260040160405180910390fd5b6002600155565b600080600080611501868661156b565b92509250925061151182826115b8565b5090949350505050565b600080546001600160a01b038381166001600160a01b0319831681178455604051919092169283917f8be0079c531659141344cd1fd0a4f28419497f9722a3daafe3b4186f6b6457e09190a35050565b600080600083516041036115a55760208401516040850151606086015160001a61159788828585611675565b9550955095505050506115b1565b50508151600091506002905b9250925092565b60008260038111156115cc576115cc6119ea565b036115d5575050565b60018260038111156115e9576115e96119ea565b036116075760405163f645eedf60e01b815260040160405180910390fd5b600282600381111561161b5761161b6119ea565b0361163c5760405163fce698f760e01b81526004810182905260240161053b565b6003826003811115611650576116506119ea565b03611671576040516335e2f38360e21b81526004810182905260240161053b565b5050565b600080807f7fffffffffffffffffffffffffffffff5d576e7357a4501ddfe92f46681b20a08411156116b0575060009150600390508261173a565b604080516000808252602082018084528a905260ff891692820192909252606081018790526080810186905260019060a0016020604051602081039080840390855afa158015611704573d6000803e3d6000fd5b5050604051601f1901519150506001600160a01b0381166117305750600092506001915082905061173a565b9250600091508190505b9450945094915050565b80356001600160a01b038116811461175b57600080fd5b919050565b60008060008060008060c0878903121561177957600080fd5b61178287611744565b955061179060208801611744565b95989597505050506040840135936060810135936080820135935060a0909101359150565b6000602082840312156117c757600080fd5b610ed682611744565b634e487b7160e01b600052604160045260246000fd5b600067ffffffffffffffff80841115611801576118016117d0565b604051601f8501601f19908116603f01168101908282118183101715611829576118296117d0565b8160405280935085815286868601111561184257600080fd5b858560208301376000602087830101525050509392505050565b6000806040838503121561186f57600080fd5b61187883611744565b9150602083013567ffffffffffffffff81111561189457600080fd5b8301601f810185136118a557600080fd5b6118b4858235602084016117e6565b9150509250929050565b81516001600160a01b03168152610160810160208301516118ea60208401826001600160a01b03169052565b5060408301516040830152606083015160608301526080830151608083015260a083015160a083015260c083015160c083015260e083015160e08301526101008084015161193b8285018215159052565b50506101208381015180151584830152505061014092830151919092015290565b60006020828403121561196e57600080fd5b5035919050565b6000806020838503121561198857600080fd5b823567ffffffffffffffff808211156119a057600080fd5b818501915085601f8301126119b457600080fd5b8135818111156119c357600080fd5b8660208260051b85010111156119d857600080fd5b60209290920196919550909350505050565b634e487b7160e01b600052602160045260246000fd5b6020810160048310611a2257634e487b7160e01b600052602160045260246000fd5b91905290565b602080825260149082015273496e76616c69642075736572206164647265737360601b604082015260600190565b634e487b7160e01b600052601160045260246000fd5b80820180821115610b1957610b19611a56565b9788526bffffffffffffffffffffffff19606097881b811660208a01529590961b909416603487015260488601929092526068850152608884015260a883015260c882015260e80190565b81810381811115610b1957610b19611a56565b634e487b7160e01b600052603260045260246000fd5b600060018201611b0557611b05611a56565b5060010190565b600060208083528351808285015260005b81811015611b3957858101830151858201604001528201611b1d565b506000604082860101526040601f19601f830116850101925050509291505056fea264697066735822122046dec059b2a4b74ed8f19d754c0eff582163ea3ae8cc61516c6d654b9503143664736f6c63430008140033",
  "linkReferences": {},
  "deployedLinkReferences": {}
}